{
  "abi": [
    {
      "type": "constructor",
      "inputs": [],
      "stateMutability": "nonpayable"
    },
    {
      "type": "function",
      "name": "DEFAULT_ADMIN_ROLE",
      "inputs": [],
      "outputs": [
        {
          "name": "",
          "type": "bytes32",
          "internalType": "bytes32"
        }
      ],
      "stateMutability": "view"
    },
    {
      "type": "function",
      "name": "SIGNER_ROLE",
      "inputs": [],
      "outputs": [
        {
          "name": "",
          "type": "bytes32",
          "internalType": "bytes32"
        }
      ],
      "stateMutability": "view"
    },
    {
      "type": "function",
      "name": "UPGRADE_INTERFACE_VERSION",
      "inputs": [],
      "outputs": [
        {
          "name": "",
          "type": "string",
          "internalType": "string"
        }
      ],
      "stateMutability": "view"
    },
    {
      "type": "function",
      "name": "available",
      "inputs": [
        {
          "name": "id_",
          "type": "bytes32",
          "internalType": "bytes32"
        },
        {
          "name": "asset_",
          "type": "address",
          "internalType": "address"
        },
        {
          "name": "vault_",
          "type": "address",
          "internalType": "address"
        },
        {
          "name": "account_",
          "type": "address",
          "internalType": "address"
        },
        {
          "name": "amount_",
          "type": "uint256",
          "internalType": "uint256"
        },
        {
          "name": "signer_",
          "type": "address",
          "internalType": "address"
        },
        {
          "name": "signature_",
          "type": "bytes",
          "internalType": "bytes"
        }
      ],
      "outputs": [
        {
          "name": "",
          "type": "uint256",
          "internalType": "uint256"
        }
      ],
      "stateMutability": "view"
    },
    {
      "type": "function",
      "name": "claim",
      "inputs": [
        {
          "name": "id_",
          "type": "bytes32",
          "internalType": "bytes32"
        },
        {
          "name": "asset_",
          "type": "address",
          "internalType": "address"
        },
        {
          "name": "vault_",
          "type": "address",
          "internalType": "address"
        },
        {
          "name": "account_",
          "type": "address",
          "internalType": "address"
        },
        {
          "name": "amount_",
          "type": "uint256",
          "internalType": "uint256"
        },
        {
          "name": "signer_",
          "type": "address",
          "internalType": "address"
        },
        {
          "name": "signature_",
          "type": "bytes",
          "internalType": "bytes"
        }
      ],
      "outputs": [],
      "stateMutability": "nonpayable"
    },
    {
      "type": "function",
      "name": "claimed",
      "inputs": [
        {
          "name": "",
          "type": "bytes32",
          "internalType": "bytes32"
        }
      ],
      "outputs": [
        {
          "name": "",
          "type": "uint256",
          "internalType": "uint256"
        }
      ],
      "stateMutability": "view"
    },
    {
      "type": "function",
      "name": "eip712Domain",
      "inputs": [],
      "outputs": [
        {
          "name": "fields",
          "type": "bytes1",
          "internalType": "bytes1"
        },
        {
          "name": "name",
          "type": "string",
          "internalType": "string"
        },
        {
          "name": "version",
          "type": "string",
          "internalType": "string"
        },
        {
          "name": "chainId",
          "type": "uint256",
          "internalType": "uint256"
        },
        {
          "name": "verifyingContract",
          "type": "address",
          "internalType": "address"
        },
        {
          "name": "salt",
          "type": "bytes32",
          "internalType": "bytes32"
        },
        {
          "name": "extensions",
          "type": "uint256[]",
          "internalType": "uint256[]"
        }
      ],
      "stateMutability": "view"
    },
    {
      "type": "function",
      "name": "getRoleAdmin",
      "inputs": [
        {
          "name": "role",
          "type": "bytes32",
          "internalType": "bytes32"
        }
      ],
      "outputs": [
        {
          "name": "",
          "type": "bytes32",
          "internalType": "bytes32"
        }
      ],
      "stateMutability": "view"
    },
    {
      "type": "function",
      "name": "grantRole",
      "inputs": [
        {
          "name": "role",
          "type": "bytes32",
          "internalType": "bytes32"
        },
        {
          "name": "account",
          "type": "address",
          "internalType": "address"
        }
      ],
      "outputs": [],
      "stateMutability": "nonpayable"
    },
    {
      "type": "function",
      "name": "hasRole",
      "inputs": [
        {
          "name": "role",
          "type": "bytes32",
          "internalType": "bytes32"
        },
        {
          "name": "account",
          "type": "address",
          "internalType": "address"
        }
      ],
      "outputs": [
        {
          "name": "",
          "type": "bool",
          "internalType": "bool"
        }
      ],
      "stateMutability": "view"
    },
    {
      "type": "function",
      "name": "initialize",
      "inputs": [
        {
          "name": "name_",
          "type": "string",
          "internalType": "string"
        },
        {
          "name": "version_",
          "type": "string",
          "internalType": "string"
        }
      ],
      "outputs": [],
      "stateMutability": "nonpayable"
    },
    {
      "type": "function",
      "name": "proxiableUUID",
      "inputs": [],
      "outputs": [
        {
          "name": "",
          "type": "bytes32",
          "internalType": "bytes32"
        }
      ],
      "stateMutability": "view"
    },
    {
      "type": "function",
      "name": "renounceRole",
      "inputs": [
        {
          "name": "role",
          "type": "bytes32",
          "internalType": "bytes32"
        },
        {
          "name": "callerConfirmation",
          "type": "address",
          "internalType": "address"
        }
      ],
      "outputs": [],
      "stateMutability": "nonpayable"
    },
    {
      "type": "function",
      "name": "revokeRole",
      "inputs": [
        {
          "name": "role",
          "type": "bytes32",
          "internalType": "bytes32"
        },
        {
          "name": "account",
          "type": "address",
          "internalType": "address"
        }
      ],
      "outputs": [],
      "stateMutability": "nonpayable"
    },
    {
      "type": "function",
      "name": "supportsInterface",
      "inputs": [
        {
          "name": "interfaceId",
          "type": "bytes4",
          "internalType": "bytes4"
        }
      ],
      "outputs": [
        {
          "name": "",
          "type": "bool",
          "internalType": "bool"
        }
      ],
      "stateMutability": "view"
    },
    {
      "type": "function",
      "name": "upgradeToAndCall",
      "inputs": [
        {
          "name": "newImplementation",
          "type": "address",
          "internalType": "address"
        },
        {
          "name": "data",
          "type": "bytes",
          "internalType": "bytes"
        }
      ],
      "outputs": [],
      "stateMutability": "payable"
    },
    {
      "type": "event",
      "name": "EIP712DomainChanged",
      "inputs": [],
      "anonymous": false
    },
    {
      "type": "event",
      "name": "Initialized",
      "inputs": [
        {
          "name": "version",
          "type": "uint64",
          "indexed": false,
          "internalType": "uint64"
        }
      ],
      "anonymous": false
    },
    {
      "type": "event",
      "name": "RoleAdminChanged",
      "inputs": [
        {
          "name": "role",
          "type": "bytes32",
          "indexed": true,
          "internalType": "bytes32"
        },
        {
          "name": "previousAdminRole",
          "type": "bytes32",
          "indexed": true,
          "internalType": "bytes32"
        },
        {
          "name": "newAdminRole",
          "type": "bytes32",
          "indexed": true,
          "internalType": "bytes32"
        }
      ],
      "anonymous": false
    },
    {
      "type": "event",
      "name": "RoleGranted",
      "inputs": [
        {
          "name": "role",
          "type": "bytes32",
          "indexed": true,
          "internalType": "bytes32"
        },
        {
          "name": "account",
          "type": "address",
          "indexed": true,
          "internalType": "address"
        },
        {
          "name": "sender",
          "type": "address",
          "indexed": true,
          "internalType": "address"
        }
      ],
      "anonymous": false
    },
    {
      "type": "event",
      "name": "RoleRevoked",
      "inputs": [
        {
          "name": "role",
          "type": "bytes32",
          "indexed": true,
          "internalType": "bytes32"
        },
        {
          "name": "account",
          "type": "address",
          "indexed": true,
          "internalType": "address"
        },
        {
          "name": "sender",
          "type": "address",
          "indexed": true,
          "internalType": "address"
        }
      ],
      "anonymous": false
    },
    {
      "type": "event",
      "name": "Upgraded",
      "inputs": [
        {
          "name": "implementation",
          "type": "address",
          "indexed": true,
          "internalType": "address"
        }
      ],
      "anonymous": false
    },
    {
      "type": "error",
      "name": "AccessControlBadConfirmation",
      "inputs": []
    },
    {
      "type": "error",
      "name": "AccessControlUnauthorizedAccount",
      "inputs": [
        {
          "name": "account",
          "type": "address",
          "internalType": "address"
        },
        {
          "name": "neededRole",
          "type": "bytes32",
          "internalType": "bytes32"
        }
      ]
    },
    {
      "type": "error",
      "name": "AddressEmptyCode",
      "inputs": [
        {
          "name": "target",
          "type": "address",
          "internalType": "address"
        }
      ]
    },
    {
      "type": "error",
      "name": "ERC1967InvalidImplementation",
      "inputs": [
        {
          "name": "implementation",
          "type": "address",
          "internalType": "address"
        }
      ]
    },
    {
      "type": "error",
      "name": "ERC1967NonPayable",
      "inputs": []
    },
    {
      "type": "error",
      "name": "FailedInnerCall",
      "inputs": []
    },
    {
      "type": "error",
      "name": "InvalidInitialization",
      "inputs": []
    },
    {
      "type": "error",
      "name": "NotInitializing",
      "inputs": []
    },
    {
      "type": "error",
      "name": "NothingToClaim",
      "inputs": []
    },
    {
      "type": "error",
      "name": "UUPSUnauthorizedCallContext",
      "inputs": []
    },
    {
      "type": "error",
      "name": "UUPSUnsupportedProxiableUUID",
      "inputs": [
        {
          "name": "slot",
          "type": "bytes32",
          "internalType": "bytes32"
        }
      ]
    }
  ],
  "bytecode": {
    "object": "0x60a060405230608052348015610013575f5ffd5b5061001c610021565b6100d3565b7ff0c57e16840df040f15088dc2f81fe391c3923bec73e23a9662efc9c229c6a00805468010000000000000000900460ff16156100715760405163f92ee8a960e01b815260040160405180910390fd5b80546001600160401b03908116146100d05780546001600160401b0319166001600160401b0390811782556040519081527fc7f505b2f371ae2175ee4913f4499e1f2633a7b5936321eed1cdaeb6115181d29060200160405180910390a15b50565b6080516119406100f95f395f8181610a1f01528181610a480152610b8901526119405ff3fe6080604052600436106100ef575f3560e01c806354f5549d11610087578063a217fddf11610057578063a217fddf14610291578063ad3cb1cc146102a4578063cc3c0f06146102e1578063d547741f1461030c575f5ffd5b806354f5549d146101f957806384b0196e1461021857806391d148541461023f578063a1ebf35d1461025e575f5ffd5b80633f6d22ae116100c25780633f6d22ae146101945780634cd88b76146101b35780634f1ef286146101d257806352d1902d146101e5575f5ffd5b806301ffc9a7146100f3578063248a9ca3146101275780632f2ff15d1461015457806336568abe14610175575b5f5ffd5b3480156100fe575f5ffd5b5061011261010d366004611313565b61032b565b60405190151581526020015b60405180910390f35b348015610132575f5ffd5b5061014661014136600461133a565b610361565b60405190815260200161011e565b34801561015f575f5ffd5b5061017361016e36600461136c565b610381565b005b348015610180575f5ffd5b5061017361018f36600461136c565b6103a3565b34801561019f575f5ffd5b506101736101ae366004611396565b6103db565b3480156101be575f5ffd5b506101736101cd3660046114ff565b610544565b6101736101e0366004611564565b61066f565b3480156101f0575f5ffd5b5061014661068e565b348015610204575f5ffd5b50610146610213366004611396565b6106a9565b348015610223575f5ffd5b5061022c6107a7565b60405161011e9796959493929190611605565b34801561024a575f5ffd5b5061011261025936600461136c565b610855565b348015610269575f5ffd5b506101467fe2f4eaae4a9751e85a3e4a7b9587827a877f29914755229b07a7b2da98285f7081565b34801561029c575f5ffd5b506101465f81565b3480156102af575f5ffd5b506102d4604051806040016040528060058152602001640352e302e360dc1b81525081565b60405161011e919061169b565b3480156102ec575f5ffd5b506101466102fb36600461133a565b5f6020819052908152604090205481565b348015610317575f5ffd5b5061017361032636600461136c565b61088b565b5f6001600160e01b03198216637965db0b60e01b148061035b57506301ffc9a760e01b6001600160e01b03198316145b92915050565b5f9081525f5160206118eb5f395f51905f52602052604090206001015490565b61038a82610361565b610393816108a7565b61039d83836108b4565b50505050565b6001600160a01b03811633146103cc5760405163334bd91960e11b815260040160405180910390fd5b6103d68282610955565b505050565b6103e4836109ce565b5f6103f589898989898989896106a9565b9050805f03610417576040516312d37ee560e31b815260040160405180910390fd5b5f89815260208190526040812080548392906104349084906116c1565b9091555050306001600160a01b038816036104bf5760405163a9059cbb60e01b81526001600160a01b0387811660048301526024820183905289169063a9059cbb906044016020604051808303815f875af1158015610495573d5f5f3e3d5ffd5b505050506040513d601f19601f820116820180604052508101906104b991906116d4565b50610539565b6040516323b872dd60e01b81526001600160a01b0388811660048301528781166024830152604482018390528916906323b872dd906064016020604051808303815f875af1158015610513573d5f5f3e3d5ffd5b505050506040513d601f19601f8201168201806040525081019061053791906116d4565b505b505050505050505050565b7ff0c57e16840df040f15088dc2f81fe391c3923bec73e23a9662efc9c229c6a008054600160401b810460ff16159067ffffffffffffffff165f811580156105895750825b90505f8267ffffffffffffffff1660011480156105a55750303b155b9050811580156105b3575080155b156105d15760405163f92ee8a960e01b815260040160405180910390fd5b845467ffffffffffffffff1916600117855583156105fb57845460ff60401b1916600160401b1785555b61060587876109f8565b61060d610a0a565b610615610a0a565b61061f5f336108b4565b50831561066657845460ff60401b19168555604051600181527fc7f505b2f371ae2175ee4913f4499e1f2633a7b5936321eed1cdaeb6115181d29060200160405180910390a15b50505050505050565b610677610a14565b61068082610ab8565b61068a8282610ac2565b5050565b5f610697610b7e565b505f5160206118cb5f395f51905f5290565b604080517fe27d4b5cca3e18af9f11a9e8aa956fd2183f8d6bcdc5b5541ba2d6472daa8d9c60208201529081018990526001600160a01b0380891660608301528088166080830152861660a082015260c081018590525f90819060e0016040516020818303038152906040528051906020012090505f61072882610bc7565b90505f61076b878388888080601f0160208091040260200160405190810160405280939291908181526020018383808284375f92019190915250610bf392505050565b90508061077d575f935050505061079b565b5f8c81526020819052604090205461079590896116f3565b93505050505b98975050505050505050565b5f60608082808083815f5160206118ab5f395f51905f5280549091501580156107d257506001810154155b61081b5760405162461bcd60e51b81526020600482015260156024820152741152540dcc4c8e88155b9a5b9a5d1a585b1a5e9959605a1b60448201526064015b60405180910390fd5b610823610c54565b61082b610d14565b604080515f80825260208201909252600f60f81b9c939b5091995046985030975095509350915050565b5f9182525f5160206118eb5f395f51905f52602090815260408084206001600160a01b0393909316845291905290205460ff1690565b61089482610361565b61089d816108a7565b61039d8383610955565b6108b18133610d52565b50565b5f5f5160206118eb5f395f51905f526108cd8484610855565b61094c575f848152602082815260408083206001600160a01b03871684529091529020805460ff191660011790556109023390565b6001600160a01b0316836001600160a01b0316857f2f8788117e7eff1d82e926ec794901d17c78024a50270940304540a733656f0d60405160405180910390a4600191505061035b565b5f91505061035b565b5f5f5160206118eb5f395f51905f5261096e8484610855565b1561094c575f848152602082815260408083206001600160a01b0387168085529252808320805460ff1916905551339287917ff6391f5c32d9c69d2a47ea670b442974b53935d1edc7fd64eb21e047a839171b9190a4600191505061035b565b6108b17fe2f4eaae4a9751e85a3e4a7b9587827a877f29914755229b07a7b2da98285f7082610d52565b610a00610d8b565b61068a8282610dd4565b610a12610d8b565b565b306001600160a01b037f0000000000000000000000000000000000000000000000000000000000000000161480610a9a57507f00000000000000000000000000000000000000000000000000000000000000006001600160a01b0316610a8e5f5160206118cb5f395f51905f52546001600160a01b031690565b6001600160a01b031614155b15610a125760405163703e46dd60e11b815260040160405180910390fd5b5f61068a816108a7565b816001600160a01b03166352d1902d6040518163ffffffff1660e01b8152600401602060405180830381865afa925050508015610b1c575060408051601f3d908101601f19168201909252610b1991810190611706565b60015b610b4457604051634c9c8ce360e01b81526001600160a01b0383166004820152602401610812565b5f5160206118cb5f395f51905f528114610b7457604051632a87526960e21b815260048101829052602401610812565b6103d68383610e33565b306001600160a01b037f00000000000000000000000000000000000000000000000000000000000000001614610a125760405163703e46dd60e11b815260040160405180910390fd5b5f61035b610bd3610e88565b8360405161190160f01b8152600281019290925260228201526042902090565b5f5f5f610c008585610e96565b5090925090505f816003811115610c1957610c1961171d565b148015610c375750856001600160a01b0316826001600160a01b0316145b80610c485750610c48868686610edf565b925050505b9392505050565b7fa16a46d94261c7517cc8ff89f61c0ce93598e3c849801011dee649a6a557d10280546060915f5160206118ab5f395f51905f5291610c9290611731565b80601f0160208091040260200160405190810160405280929190818152602001828054610cbe90611731565b8015610d095780601f10610ce057610100808354040283529160200191610d09565b820191905f5260205f20905b815481529060010190602001808311610cec57829003601f168201915b505050505091505090565b7fa16a46d94261c7517cc8ff89f61c0ce93598e3c849801011dee649a6a557d10380546060915f5160206118ab5f395f51905f5291610c9290611731565b610d5c8282610855565b61068a5760405163e2517d3f60e01b81526001600160a01b038216600482015260248101839052604401610812565b7ff0c57e16840df040f15088dc2f81fe391c3923bec73e23a9662efc9c229c6a0054600160401b900460ff16610a1257604051631afcd79f60e31b815260040160405180910390fd5b610ddc610d8b565b5f5160206118ab5f395f51905f527fa16a46d94261c7517cc8ff89f61c0ce93598e3c849801011dee649a6a557d102610e1584826117b4565b5060038101610e2483826117b4565b505f8082556001909101555050565b610e3c82610fb5565b6040516001600160a01b038316907fbc7cd75a20ee27fd9adebab32041f755214dbc6bffa90cc0225b39da2e5c2d3b905f90a2805115610e80576103d68282611018565b61068a61108a565b5f610e916110a9565b905090565b5f5f5f8351604103610ecd576020840151604085015160608601515f1a610ebf8882858561111c565b955095509550505050610ed8565b505081515f91506002905b9250925092565b5f5f5f856001600160a01b03168585604051602401610eff92919061186f565b60408051601f198184030181529181526020820180516001600160e01b0316630b135d3f60e11b17905251610f34919061188f565b5f60405180830381855afa9150503d805f8114610f6c576040519150601f19603f3d011682016040523d82523d5f602084013e610f71565b606091505b5091509150818015610f8557506020815110155b8015610c4857508051630b135d3f60e11b90610faa9083016020908101908401611706565b149695505050505050565b806001600160a01b03163b5f03610fea57604051634c9c8ce360e01b81526001600160a01b0382166004820152602401610812565b5f5160206118cb5f395f51905f5280546001600160a01b0319166001600160a01b0392909216919091179055565b60605f5f846001600160a01b031684604051611034919061188f565b5f60405180830381855af49150503d805f811461106c576040519150601f19603f3d011682016040523d82523d5f602084013e611071565b606091505b50915091506110818583836111e4565b95945050505050565b3415610a125760405163b398979f60e01b815260040160405180910390fd5b5f7f8b73c3c69bb8fe3d512ecc4cf759cc79239f7b179b0ffacaa9a75d522b39400f6110d3611240565b6110db6112a8565b60408051602081019490945283019190915260608201524660808201523060a082015260c00160405160208183030381529060405280519060200120905090565b5f80807f7fffffffffffffffffffffffffffffff5d576e7357a4501ddfe92f46681b20a084111561115557505f915060039050826111da565b604080515f808252602082018084528a905260ff891692820192909252606081018790526080810186905260019060a0016020604051602081039080840390855afa1580156111a6573d5f5f3e3d5ffd5b5050604051601f1901519150506001600160a01b0381166111d157505f9250600191508290506111da565b92505f91508190505b9450945094915050565b6060826111f9576111f4826112ea565b610c4d565b815115801561121057506001600160a01b0384163b155b1561123957604051639996b31560e01b81526001600160a01b0385166004820152602401610812565b5080610c4d565b5f5f5160206118ab5f395f51905f5281611258610c54565b80519091501561127057805160209091012092915050565b8154801561127f579392505050565b7fc5d2460186f7233c927e7db2dcc703c0e500b653ca82273b7bfad8045d85a470935050505090565b5f5f5160206118ab5f395f51905f52816112c0610d14565b8051909150156112d857805160209091012092915050565b6001820154801561127f579392505050565b8051156112fa5780518082602001fd5b604051630a12f52160e11b815260040160405180910390fd5b5f60208284031215611323575f5ffd5b81356001600160e01b031981168114610c4d575f5ffd5b5f6020828403121561134a575f5ffd5b5035919050565b80356001600160a01b0381168114611367575f5ffd5b919050565b5f5f6040838503121561137d575f5ffd5b8235915061138d60208401611351565b90509250929050565b5f5f5f5f5f5f5f5f60e0898b0312156113ad575f5ffd5b883597506113bd60208a01611351565b96506113cb60408a01611351565b95506113d960608a01611351565b9450608089013593506113ee60a08a01611351565b925060c089013567ffffffffffffffff811115611409575f5ffd5b8901601f81018b13611419575f5ffd5b803567ffffffffffffffff81111561142f575f5ffd5b8b6020828401011115611440575f5ffd5b989b979a50959850939692959194602001935050565b634e487b7160e01b5f52604160045260245ffd5b5f5f67ffffffffffffffff84111561148457611484611456565b50604051601f19601f85018116603f0116810181811067ffffffffffffffff821117156114b3576114b3611456565b6040528381529050808284018510156114ca575f5ffd5b838360208301375f60208583010152509392505050565b5f82601f8301126114f0575f5ffd5b610c4d8383356020850161146a565b5f5f60408385031215611510575f5ffd5b823567ffffffffffffffff811115611526575f5ffd5b611532858286016114e1565b925050602083013567ffffffffffffffff81111561154e575f5ffd5b61155a858286016114e1565b9150509250929050565b5f5f60408385031215611575575f5ffd5b61157e83611351565b9150602083013567ffffffffffffffff811115611599575f5ffd5b8301601f810185136115a9575f5ffd5b61155a8582356020840161146a565b5f5b838110156115d25781810151838201526020016115ba565b50505f910152565b5f81518084526115f18160208601602086016115b8565b601f01601f19169290920160200192915050565b60ff60f81b8816815260e060208201525f61162360e08301896115da565b828103604084015261163581896115da565b606084018890526001600160a01b038716608085015260a0840186905283810360c0850152845180825260208087019350909101905f5b8181101561168a57835183526020938401939092019160010161166c565b50909b9a5050505050505050505050565b602081525f610c4d60208301846115da565b634e487b7160e01b5f52601160045260245ffd5b8082018082111561035b5761035b6116ad565b5f602082840312156116e4575f5ffd5b81518015158114610c4d575f5ffd5b8181038181111561035b5761035b6116ad565b5f60208284031215611716575f5ffd5b5051919050565b634e487b7160e01b5f52602160045260245ffd5b600181811c9082168061174557607f821691505b60208210810361176357634e487b7160e01b5f52602260045260245ffd5b50919050565b601f8211156103d657805f5260205f20601f840160051c8101602085101561178e5750805b601f840160051c820191505b818110156117ad575f815560010161179a565b5050505050565b815167ffffffffffffffff8111156117ce576117ce611456565b6117e2816117dc8454611731565b84611769565b6020601f821160018114611814575f83156117fd5750848201515b5f19600385901b1c1916600184901b1784556117ad565b5f84815260208120601f198516915b828110156118435787850151825560209485019460019092019101611823565b508482101561186057868401515f19600387901b60f8161c191681555b50505050600190811b01905550565b828152604060208201525f61188760408301846115da565b949350505050565b5f82516118a08184602087016115b8565b919091019291505056fea16a46d94261c7517cc8ff89f61c0ce93598e3c849801011dee649a6a557d100360894a13ba1a3210667c828492db98dca3e2076cc3735a920a3ca505d382bbc02dd7bc7dec4dceedda775e58dd541e08a116c6c53815c0bd028192f7b626800a26469706673582212200fe3e09caa87abd8ebd798c5dcf394f8123e2d374d8e40c13f4c413aca51112c64736f6c634300081c0033",
    "linkReferences": {}
  },
  "methodIdentifiers": {
    "DEFAULT_ADMIN_ROLE()": "a217fddf",
    "SIGNER_ROLE()": "a1ebf35d",
    "UPGRADE_INTERFACE_VERSION()": "ad3cb1cc",
    "available(bytes32,address,address,address,uint256,address,bytes)": "54f5549d",
    "claim(bytes32,address,address,address,uint256,address,bytes)": "3f6d22ae",
    "claimed(bytes32)": "cc3c0f06",
    "eip712Domain()": "84b0196e",
    "getRoleAdmin(bytes32)": "248a9ca3",
    "grantRole(bytes32,address)": "2f2ff15d",
    "hasRole(bytes32,address)": "91d14854",
    "initialize(string,string)": "4cd88b76",
    "proxiableUUID()": "52d1902d",
    "renounceRole(bytes32,address)": "36568abe",
    "revokeRole(bytes32,address)": "d547741f",
    "supportsInterface(bytes4)": "01ffc9a7",
    "upgradeToAndCall(address,bytes)": "4f1ef286"
  },
  "id": 54
}