{
  "abi": [
    {
      "type": "constructor",
      "inputs": [],
      "stateMutability": "nonpayable"
    },
    {
      "type": "function",
      "name": "DEFAULT_ADMIN_ROLE",
      "inputs": [],
      "outputs": [
        {
          "name": "",
          "type": "bytes32",
          "internalType": "bytes32"
        }
      ],
      "stateMutability": "view"
    },
    {
      "type": "function",
      "name": "SIGNER_ROLE",
      "inputs": [],
      "outputs": [
        {
          "name": "",
          "type": "bytes32",
          "internalType": "bytes32"
        }
      ],
      "stateMutability": "view"
    },
    {
      "type": "function",
      "name": "UPGRADE_INTERFACE_VERSION",
      "inputs": [],
      "outputs": [
        {
          "name": "",
          "type": "string",
          "internalType": "string"
        }
      ],
      "stateMutability": "view"
    },
    {
      "type": "function",
      "name": "available",
      "inputs": [
        {
          "name": "asset_",
          "type": "address",
          "internalType": "address"
        },
        {
          "name": "vault_",
          "type": "address",
          "internalType": "address"
        },
        {
          "name": "account_",
          "type": "address",
          "internalType": "address"
        },
        {
          "name": "amount_",
          "type": "uint256",
          "internalType": "uint256"
        },
        {
          "name": "signer_",
          "type": "address",
          "internalType": "address"
        },
        {
          "name": "signature_",
          "type": "bytes",
          "internalType": "bytes"
        }
      ],
      "outputs": [
        {
          "name": "",
          "type": "uint256",
          "internalType": "uint256"
        }
      ],
      "stateMutability": "view"
    },
    {
      "type": "function",
      "name": "claim",
      "inputs": [
        {
          "name": "asset_",
          "type": "address",
          "internalType": "address"
        },
        {
          "name": "vault_",
          "type": "address",
          "internalType": "address"
        },
        {
          "name": "account_",
          "type": "address",
          "internalType": "address"
        },
        {
          "name": "amount_",
          "type": "uint256",
          "internalType": "uint256"
        },
        {
          "name": "signer_",
          "type": "address",
          "internalType": "address"
        },
        {
          "name": "signature_",
          "type": "bytes",
          "internalType": "bytes"
        }
      ],
      "outputs": [],
      "stateMutability": "nonpayable"
    },
    {
      "type": "function",
      "name": "claimed",
      "inputs": [
        {
          "name": "",
          "type": "address",
          "internalType": "address"
        }
      ],
      "outputs": [
        {
          "name": "",
          "type": "uint256",
          "internalType": "uint256"
        }
      ],
      "stateMutability": "view"
    },
    {
      "type": "function",
      "name": "eip712Domain",
      "inputs": [],
      "outputs": [
        {
          "name": "fields",
          "type": "bytes1",
          "internalType": "bytes1"
        },
        {
          "name": "name",
          "type": "string",
          "internalType": "string"
        },
        {
          "name": "version",
          "type": "string",
          "internalType": "string"
        },
        {
          "name": "chainId",
          "type": "uint256",
          "internalType": "uint256"
        },
        {
          "name": "verifyingContract",
          "type": "address",
          "internalType": "address"
        },
        {
          "name": "salt",
          "type": "bytes32",
          "internalType": "bytes32"
        },
        {
          "name": "extensions",
          "type": "uint256[]",
          "internalType": "uint256[]"
        }
      ],
      "stateMutability": "view"
    },
    {
      "type": "function",
      "name": "getRoleAdmin",
      "inputs": [
        {
          "name": "role",
          "type": "bytes32",
          "internalType": "bytes32"
        }
      ],
      "outputs": [
        {
          "name": "",
          "type": "bytes32",
          "internalType": "bytes32"
        }
      ],
      "stateMutability": "view"
    },
    {
      "type": "function",
      "name": "grantRole",
      "inputs": [
        {
          "name": "role",
          "type": "bytes32",
          "internalType": "bytes32"
        },
        {
          "name": "account",
          "type": "address",
          "internalType": "address"
        }
      ],
      "outputs": [],
      "stateMutability": "nonpayable"
    },
    {
      "type": "function",
      "name": "hasRole",
      "inputs": [
        {
          "name": "role",
          "type": "bytes32",
          "internalType": "bytes32"
        },
        {
          "name": "account",
          "type": "address",
          "internalType": "address"
        }
      ],
      "outputs": [
        {
          "name": "",
          "type": "bool",
          "internalType": "bool"
        }
      ],
      "stateMutability": "view"
    },
    {
      "type": "function",
      "name": "initialize",
      "inputs": [
        {
          "name": "staking_",
          "type": "address",
          "internalType": "contract StakingUpgradeable"
        },
        {
          "name": "name_",
          "type": "string",
          "internalType": "string"
        },
        {
          "name": "version_",
          "type": "string",
          "internalType": "string"
        }
      ],
      "outputs": [],
      "stateMutability": "nonpayable"
    },
    {
      "type": "function",
      "name": "proxiableUUID",
      "inputs": [],
      "outputs": [
        {
          "name": "",
          "type": "bytes32",
          "internalType": "bytes32"
        }
      ],
      "stateMutability": "view"
    },
    {
      "type": "function",
      "name": "renounceRole",
      "inputs": [
        {
          "name": "role",
          "type": "bytes32",
          "internalType": "bytes32"
        },
        {
          "name": "callerConfirmation",
          "type": "address",
          "internalType": "address"
        }
      ],
      "outputs": [],
      "stateMutability": "nonpayable"
    },
    {
      "type": "function",
      "name": "revokeRole",
      "inputs": [
        {
          "name": "role",
          "type": "bytes32",
          "internalType": "bytes32"
        },
        {
          "name": "account",
          "type": "address",
          "internalType": "address"
        }
      ],
      "outputs": [],
      "stateMutability": "nonpayable"
    },
    {
      "type": "function",
      "name": "staking",
      "inputs": [],
      "outputs": [
        {
          "name": "",
          "type": "address",
          "internalType": "contract StakingUpgradeable"
        }
      ],
      "stateMutability": "view"
    },
    {
      "type": "function",
      "name": "supportsInterface",
      "inputs": [
        {
          "name": "interfaceId",
          "type": "bytes4",
          "internalType": "bytes4"
        }
      ],
      "outputs": [
        {
          "name": "",
          "type": "bool",
          "internalType": "bool"
        }
      ],
      "stateMutability": "view"
    },
    {
      "type": "function",
      "name": "upgradeToAndCall",
      "inputs": [
        {
          "name": "newImplementation",
          "type": "address",
          "internalType": "address"
        },
        {
          "name": "data",
          "type": "bytes",
          "internalType": "bytes"
        }
      ],
      "outputs": [],
      "stateMutability": "payable"
    },
    {
      "type": "event",
      "name": "Claimed",
      "inputs": [
        {
          "name": "asset",
          "type": "address",
          "indexed": false,
          "internalType": "address"
        },
        {
          "name": "vault",
          "type": "address",
          "indexed": false,
          "internalType": "address"
        },
        {
          "name": "account",
          "type": "address",
          "indexed": false,
          "internalType": "address"
        },
        {
          "name": "amount",
          "type": "uint256",
          "indexed": false,
          "internalType": "uint256"
        }
      ],
      "anonymous": false
    },
    {
      "type": "event",
      "name": "EIP712DomainChanged",
      "inputs": [],
      "anonymous": false
    },
    {
      "type": "event",
      "name": "Initialized",
      "inputs": [
        {
          "name": "version",
          "type": "uint64",
          "indexed": false,
          "internalType": "uint64"
        }
      ],
      "anonymous": false
    },
    {
      "type": "event",
      "name": "Initialized",
      "inputs": [
        {
          "name": "staking",
          "type": "address",
          "indexed": true,
          "internalType": "address"
        },
        {
          "name": "name",
          "type": "string",
          "indexed": false,
          "internalType": "string"
        },
        {
          "name": "version",
          "type": "string",
          "indexed": false,
          "internalType": "string"
        }
      ],
      "anonymous": false
    },
    {
      "type": "event",
      "name": "RoleAdminChanged",
      "inputs": [
        {
          "name": "role",
          "type": "bytes32",
          "indexed": true,
          "internalType": "bytes32"
        },
        {
          "name": "previousAdminRole",
          "type": "bytes32",
          "indexed": true,
          "internalType": "bytes32"
        },
        {
          "name": "newAdminRole",
          "type": "bytes32",
          "indexed": true,
          "internalType": "bytes32"
        }
      ],
      "anonymous": false
    },
    {
      "type": "event",
      "name": "RoleGranted",
      "inputs": [
        {
          "name": "role",
          "type": "bytes32",
          "indexed": true,
          "internalType": "bytes32"
        },
        {
          "name": "account",
          "type": "address",
          "indexed": true,
          "internalType": "address"
        },
        {
          "name": "sender",
          "type": "address",
          "indexed": true,
          "internalType": "address"
        }
      ],
      "anonymous": false
    },
    {
      "type": "event",
      "name": "RoleRevoked",
      "inputs": [
        {
          "name": "role",
          "type": "bytes32",
          "indexed": true,
          "internalType": "bytes32"
        },
        {
          "name": "account",
          "type": "address",
          "indexed": true,
          "internalType": "address"
        },
        {
          "name": "sender",
          "type": "address",
          "indexed": true,
          "internalType": "address"
        }
      ],
      "anonymous": false
    },
    {
      "type": "event",
      "name": "Upgraded",
      "inputs": [
        {
          "name": "implementation",
          "type": "address",
          "indexed": true,
          "internalType": "address"
        }
      ],
      "anonymous": false
    },
    {
      "type": "error",
      "name": "AccessControlBadConfirmation",
      "inputs": []
    },
    {
      "type": "error",
      "name": "AccessControlUnauthorizedAccount",
      "inputs": [
        {
          "name": "account",
          "type": "address",
          "internalType": "address"
        },
        {
          "name": "neededRole",
          "type": "bytes32",
          "internalType": "bytes32"
        }
      ]
    },
    {
      "type": "error",
      "name": "AddressEmptyCode",
      "inputs": [
        {
          "name": "target",
          "type": "address",
          "internalType": "address"
        }
      ]
    },
    {
      "type": "error",
      "name": "ERC1967InvalidImplementation",
      "inputs": [
        {
          "name": "implementation",
          "type": "address",
          "internalType": "address"
        }
      ]
    },
    {
      "type": "error",
      "name": "ERC1967NonPayable",
      "inputs": []
    },
    {
      "type": "error",
      "name": "FailedInnerCall",
      "inputs": []
    },
    {
      "type": "error",
      "name": "InvalidInitialization",
      "inputs": []
    },
    {
      "type": "error",
      "name": "NotInitializing",
      "inputs": []
    },
    {
      "type": "error",
      "name": "NothingToClaim",
      "inputs": []
    },
    {
      "type": "error",
      "name": "UUPSUnauthorizedCallContext",
      "inputs": []
    },
    {
      "type": "error",
      "name": "UUPSUnsupportedProxiableUUID",
      "inputs": [
        {
          "name": "slot",
          "type": "bytes32",
          "internalType": "bytes32"
        }
      ]
    }
  ],
  "bytecode": {
    "object": "0x60a060405230608052348015610013575f5ffd5b5061001c610021565b6100d3565b7ff0c57e16840df040f15088dc2f81fe391c3923bec73e23a9662efc9c229c6a00805468010000000000000000900460ff16156100715760405163f92ee8a960e01b815260040160405180910390fd5b80546001600160401b03908116146100d05780546001600160401b0319166001600160401b0390811782556040519081527fc7f505b2f371ae2175ee4913f4499e1f2633a7b5936321eed1cdaeb6115181d29060200160405180910390a15b50565b608051611a8b6100f95f395f8181610aca01528181610af30152610c360152611a8b5ff3fe6080604052600436106100fa575f3560e01c806384b0196e11610092578063a217fddf11610062578063a217fddf146102b3578063ad3cb1cc146102c6578063c884ef8314610303578063d547741f1461032e578063e48d08e51461034d575f5ffd5b806384b0196e1461021b578063906571471461024257806391d1485414610261578063a1ebf35d14610280575f5ffd5b80634cf088d9116100cd5780634cf088d91461019f5780634f1ef286146101d557806352d1902d146101e85780635c436149146101fc575f5ffd5b806301ffc9a7146100fe578063248a9ca3146101325780632f2ff15d1461015f57806336568abe14610180575b5f5ffd5b348015610109575f5ffd5b5061011d610118366004611404565b61036c565b60405190151581526020015b60405180910390f35b34801561013d575f5ffd5b5061015161014c36600461142b565b6103a2565b604051908152602001610129565b34801561016a575f5ffd5b5061017e610179366004611456565b6103c2565b005b34801561018b575f5ffd5b5061017e61019a366004611456565b6103e4565b3480156101aa575f5ffd5b505f546101bd906001600160a01b031681565b6040516001600160a01b039091168152602001610129565b61017e6101e336600461150f565b61041c565b3480156101f3575f5ffd5b5061015161043b565b348015610207575f5ffd5b5061017e61021636600461156f565b610456565b348015610226575f5ffd5b5061022f61061a565b604051610129979695949392919061167d565b34801561024d575f5ffd5b5061017e61025c366004611731565b6106c8565b34801561026c575f5ffd5b5061011d61027b366004611456565b610847565b34801561028b575f5ffd5b506101517fe2f4eaae4a9751e85a3e4a7b9587827a877f29914755229b07a7b2da98285f7081565b3480156102be575f5ffd5b506101515f81565b3480156102d1575f5ffd5b506102f6604051806040016040528060058152602001640352e302e360dc1b81525081565b60405161012991906117a7565b34801561030e575f5ffd5b5061015161031d3660046117b9565b60016020525f908152604090205481565b348015610339575f5ffd5b5061017e610348366004611456565b61087d565b348015610358575f5ffd5b5061015161036736600461156f565b610899565b5f6001600160e01b03198216637965db0b60e01b148061039c57506301ffc9a760e01b6001600160e01b03198316145b92915050565b5f9081525f516020611a365f395f51905f52602052604090206001015490565b6103cb826103a2565b6103d481610998565b6103de83836109a5565b50505050565b6001600160a01b038116331461040d5760405163334bd91960e11b815260040160405180910390fd5b6104178282610a46565b505050565b610424610abf565b61042d82610b65565b6104378282610b6f565b5050565b5f610444610c2b565b505f516020611a165f395f51905f5290565b61045f83610c74565b5f61046f88888888888888610899565b9050805f03610491576040516312d37ee560e31b815260040160405180910390fd5b6001600160a01b0386165f90815260016020526040812080548392906104b89084906117e8565b90915550506001600160a01b0387163014610545576040516323b872dd60e01b81526001600160a01b038881166004830152306024830152604482018390528916906323b872dd906064016020604051808303815f875af115801561051f573d5f5f3e3d5ffd5b505050506040513d601f19601f8201168201806040525081019061054391906117fb565b505b5f54604051636e553f6560e01b8152600481018390526001600160a01b03888116602483015290911690636e553f65906044016020604051808303815f875af1158015610594573d5f5f3e3d5ffd5b505050506040513d601f19601f820116820180604052508101906105b8919061181a565b50604080516001600160a01b03808b168252808a166020830152881691810191909152606081018290527f913c992353dc81b7a8ba31496c484e9b6306bd2f6c509a649a38fdf5e1c953b2906080015b60405180910390a15050505050505050565b5f60608082808083815f5160206119f65f395f51905f52805490915015801561064557506001810154155b61068e5760405162461bcd60e51b81526020600482015260156024820152741152540dcc4c8e88155b9a5b9a5d1a585b1a5e9959605a1b60448201526064015b60405180910390fd5b610696610c9e565b61069e610d5e565b604080515f80825260208201909252600f60f81b9c939b5091995046985030975095509350915050565b7ff0c57e16840df040f15088dc2f81fe391c3923bec73e23a9662efc9c229c6a008054600160401b810460ff16159067ffffffffffffffff165f8115801561070d5750825b90505f8267ffffffffffffffff1660011480156107295750303b155b905081158015610737575080155b156107555760405163f92ee8a960e01b815260040160405180910390fd5b845467ffffffffffffffff19166001178555831561077f57845460ff60401b1916600160401b1785555b6107898787610d9c565b610791610dae565b610799610dae565b6107a35f336109a5565b505f80546001600160a01b0319166001600160a01b038a169081179091556040517f82dfd53401a55bb491abcb3e7a97c99da1ed7eaffd89721d3e96e8e8ad4a692d906107f3908a908a90611831565b60405180910390a2831561083d57845460ff60401b19168555604051600181527fc7f505b2f371ae2175ee4913f4499e1f2633a7b5936321eed1cdaeb6115181d290602001610608565b5050505050505050565b5f9182525f516020611a365f395f51905f52602090815260408084206001600160a01b0393909316845291905290205460ff1690565b610886826103a2565b61088f81610998565b6103de8383610a46565b604080517f9c307ded16f7e2da1ff407b2234806f4cd650c9711b3326ccf5d6afaacb375ca6020808301919091526001600160a01b038a81168385015289811660608401528816608083015260a08083018890528351808403909101815260c090920190925280519101205f908161091082610db6565b90505f610953878388888080601f0160208091040260200160405190810160405280939291908181526020018383808284375f92019190915250610de292505050565b905080610965575f935050505061098d565b6001600160a01b0389165f908152600160205260409020546109879089611855565b93505050505b979650505050505050565b6109a28133610e43565b50565b5f5f516020611a365f395f51905f526109be8484610847565b610a3d575f848152602082815260408083206001600160a01b03871684529091529020805460ff191660011790556109f33390565b6001600160a01b0316836001600160a01b0316857f2f8788117e7eff1d82e926ec794901d17c78024a50270940304540a733656f0d60405160405180910390a4600191505061039c565b5f91505061039c565b5f5f516020611a365f395f51905f52610a5f8484610847565b15610a3d575f848152602082815260408083206001600160a01b0387168085529252808320805460ff1916905551339287917ff6391f5c32d9c69d2a47ea670b442974b53935d1edc7fd64eb21e047a839171b9190a4600191505061039c565b306001600160a01b037f0000000000000000000000000000000000000000000000000000000000000000161480610b4557507f00000000000000000000000000000000000000000000000000000000000000006001600160a01b0316610b395f516020611a165f395f51905f52546001600160a01b031690565b6001600160a01b031614155b15610b635760405163703e46dd60e11b815260040160405180910390fd5b565b5f61043781610998565b816001600160a01b03166352d1902d6040518163ffffffff1660e01b8152600401602060405180830381865afa925050508015610bc9575060408051601f3d908101601f19168201909252610bc69181019061181a565b60015b610bf157604051634c9c8ce360e01b81526001600160a01b0383166004820152602401610685565b5f516020611a165f395f51905f528114610c2157604051632a87526960e21b815260048101829052602401610685565b6104178383610e7c565b306001600160a01b037f00000000000000000000000000000000000000000000000000000000000000001614610b635760405163703e46dd60e11b815260040160405180910390fd5b6109a27fe2f4eaae4a9751e85a3e4a7b9587827a877f29914755229b07a7b2da98285f7082610e43565b7fa16a46d94261c7517cc8ff89f61c0ce93598e3c849801011dee649a6a557d10280546060915f5160206119f65f395f51905f5291610cdc90611868565b80601f0160208091040260200160405190810160405280929190818152602001828054610d0890611868565b8015610d535780601f10610d2a57610100808354040283529160200191610d53565b820191905f5260205f20905b815481529060010190602001808311610d3657829003601f168201915b505050505091505090565b7fa16a46d94261c7517cc8ff89f61c0ce93598e3c849801011dee649a6a557d10380546060915f5160206119f65f395f51905f5291610cdc90611868565b610da4610ed1565b6104378282610f1a565b610b63610ed1565b5f61039c610dc2610f79565b8360405161190160f01b8152600281019290925260228201526042902090565b5f5f5f610def8585610f87565b5090925090505f816003811115610e0857610e086118a0565b148015610e265750856001600160a01b0316826001600160a01b0316145b80610e375750610e37868686610fd0565b925050505b9392505050565b610e4d8282610847565b6104375760405163e2517d3f60e01b81526001600160a01b038216600482015260248101839052604401610685565b610e85826110a6565b6040516001600160a01b038316907fbc7cd75a20ee27fd9adebab32041f755214dbc6bffa90cc0225b39da2e5c2d3b905f90a2805115610ec9576104178282611109565b61043761117b565b7ff0c57e16840df040f15088dc2f81fe391c3923bec73e23a9662efc9c229c6a0054600160401b900460ff16610b6357604051631afcd79f60e31b815260040160405180910390fd5b610f22610ed1565b5f5160206119f65f395f51905f527fa16a46d94261c7517cc8ff89f61c0ce93598e3c849801011dee649a6a557d102610f5b84826118ff565b5060038101610f6a83826118ff565b505f8082556001909101555050565b5f610f8261119a565b905090565b5f5f5f8351604103610fbe576020840151604085015160608601515f1a610fb08882858561120d565b955095509550505050610fc9565b505081515f91506002905b9250925092565b5f5f5f856001600160a01b03168585604051602401610ff09291906119ba565b60408051601f198184030181529181526020820180516001600160e01b0316630b135d3f60e11b1790525161102591906119da565b5f60405180830381855afa9150503d805f811461105d576040519150601f19603f3d011682016040523d82523d5f602084013e611062565b606091505b509150915081801561107657506020815110155b8015610e3757508051630b135d3f60e11b9061109b908301602090810190840161181a565b149695505050505050565b806001600160a01b03163b5f036110db57604051634c9c8ce360e01b81526001600160a01b0382166004820152602401610685565b5f516020611a165f395f51905f5280546001600160a01b0319166001600160a01b0392909216919091179055565b60605f5f846001600160a01b03168460405161112591906119da565b5f60405180830381855af49150503d805f811461115d576040519150601f19603f3d011682016040523d82523d5f602084013e611162565b606091505b50915091506111728583836112d5565b95945050505050565b3415610b635760405163b398979f60e01b815260040160405180910390fd5b5f7f8b73c3c69bb8fe3d512ecc4cf759cc79239f7b179b0ffacaa9a75d522b39400f6111c4611331565b6111cc611399565b60408051602081019490945283019190915260608201524660808201523060a082015260c00160405160208183030381529060405280519060200120905090565b5f80807f7fffffffffffffffffffffffffffffff5d576e7357a4501ddfe92f46681b20a084111561124657505f915060039050826112cb565b604080515f808252602082018084528a905260ff891692820192909252606081018790526080810186905260019060a0016020604051602081039080840390855afa158015611297573d5f5f3e3d5ffd5b5050604051601f1901519150506001600160a01b0381166112c257505f9250600191508290506112cb565b92505f91508190505b9450945094915050565b6060826112ea576112e5826113db565b610e3c565b815115801561130157506001600160a01b0384163b155b1561132a57604051639996b31560e01b81526001600160a01b0385166004820152602401610685565b5080610e3c565b5f5f5160206119f65f395f51905f5281611349610c9e565b80519091501561136157805160209091012092915050565b81548015611370579392505050565b7fc5d2460186f7233c927e7db2dcc703c0e500b653ca82273b7bfad8045d85a470935050505090565b5f5f5160206119f65f395f51905f52816113b1610d5e565b8051909150156113c957805160209091012092915050565b60018201548015611370579392505050565b8051156113eb5780518082602001fd5b604051630a12f52160e11b815260040160405180910390fd5b5f60208284031215611414575f5ffd5b81356001600160e01b031981168114610e3c575f5ffd5b5f6020828403121561143b575f5ffd5b5035919050565b6001600160a01b03811681146109a2575f5ffd5b5f5f60408385031215611467575f5ffd5b82359150602083013561147981611442565b809150509250929050565b634e487b7160e01b5f52604160045260245ffd5b5f5f67ffffffffffffffff8411156114b2576114b2611484565b50604051601f19601f85018116603f0116810181811067ffffffffffffffff821117156114e1576114e1611484565b6040528381529050808284018510156114f8575f5ffd5b838360208301375f60208583010152509392505050565b5f5f60408385031215611520575f5ffd5b823561152b81611442565b9150602083013567ffffffffffffffff811115611546575f5ffd5b8301601f81018513611556575f5ffd5b61156585823560208401611498565b9150509250929050565b5f5f5f5f5f5f5f60c0888a031215611585575f5ffd5b873561159081611442565b965060208801356115a081611442565b955060408801356115b081611442565b94506060880135935060808801356115c781611442565b925060a088013567ffffffffffffffff8111156115e2575f5ffd5b8801601f81018a136115f2575f5ffd5b803567ffffffffffffffff811115611608575f5ffd5b8a6020828401011115611619575f5ffd5b602082019350809250505092959891949750929550565b5f5b8381101561164a578181015183820152602001611632565b50505f910152565b5f8151808452611669816020860160208601611630565b601f01601f19169290920160200192915050565b60ff60f81b8816815260e060208201525f61169b60e0830189611652565b82810360408401526116ad8189611652565b606084018890526001600160a01b038716608085015260a0840186905283810360c0850152845180825260208087019350909101905f5b818110156117025783518352602093840193909201916001016116e4565b50909b9a5050505050505050505050565b5f82601f830112611722575f5ffd5b610e3c83833560208501611498565b5f5f5f60608486031215611743575f5ffd5b833561174e81611442565b9250602084013567ffffffffffffffff811115611769575f5ffd5b61177586828701611713565b925050604084013567ffffffffffffffff811115611791575f5ffd5b61179d86828701611713565b9150509250925092565b602081525f610e3c6020830184611652565b5f602082840312156117c9575f5ffd5b8135610e3c81611442565b634e487b7160e01b5f52601160045260245ffd5b8082018082111561039c5761039c6117d4565b5f6020828403121561180b575f5ffd5b81518015158114610e3c575f5ffd5b5f6020828403121561182a575f5ffd5b5051919050565b604081525f6118436040830185611652565b82810360208401526111728185611652565b8181038181111561039c5761039c6117d4565b600181811c9082168061187c57607f821691505b60208210810361189a57634e487b7160e01b5f52602260045260245ffd5b50919050565b634e487b7160e01b5f52602160045260245ffd5b601f82111561041757805f5260205f20601f840160051c810160208510156118d95750805b601f840160051c820191505b818110156118f8575f81556001016118e5565b5050505050565b815167ffffffffffffffff81111561191957611919611484565b61192d816119278454611868565b846118b4565b6020601f82116001811461195f575f83156119485750848201515b5f19600385901b1c1916600184901b1784556118f8565b5f84815260208120601f198516915b8281101561198e578785015182556020948501946001909201910161196e565b50848210156119ab57868401515f19600387901b60f8161c191681555b50505050600190811b01905550565b828152604060208201525f6119d26040830184611652565b949350505050565b5f82516119eb818460208701611630565b919091019291505056fea16a46d94261c7517cc8ff89f61c0ce93598e3c849801011dee649a6a557d100360894a13ba1a3210667c828492db98dca3e2076cc3735a920a3ca505d382bbc02dd7bc7dec4dceedda775e58dd541e08a116c6c53815c0bd028192f7b626800a26469706673582212206da6b33cd13dc94bc2119cf7f27dd6b9c5f2ff3e843092c4e43bd091f59627a564736f6c634300081c0033",
    "linkReferences": {}
  },
  "methodIdentifiers": {
    "DEFAULT_ADMIN_ROLE()": "a217fddf",
    "SIGNER_ROLE()": "a1ebf35d",
    "UPGRADE_INTERFACE_VERSION()": "ad3cb1cc",
    "available(address,address,address,uint256,address,bytes)": "e48d08e5",
    "claim(address,address,address,uint256,address,bytes)": "5c436149",
    "claimed(address)": "c884ef83",
    "eip712Domain()": "84b0196e",
    "getRoleAdmin(bytes32)": "248a9ca3",
    "grantRole(bytes32,address)": "2f2ff15d",
    "hasRole(bytes32,address)": "91d14854",
    "initialize(address,string,string)": "90657147",
    "proxiableUUID()": "52d1902d",
    "renounceRole(bytes32,address)": "36568abe",
    "revokeRole(bytes32,address)": "d547741f",
    "staking()": "4cf088d9",
    "supportsInterface(bytes4)": "01ffc9a7",
    "upgradeToAndCall(address,bytes)": "4f1ef286"
  },
  "id": 45
}