{
  "abi": [
    {
      "type": "constructor",
      "inputs": [],
      "stateMutability": "nonpayable"
    },
    {
      "type": "function",
      "name": "DEFAULT_ADMIN_ROLE",
      "inputs": [],
      "outputs": [
        {
          "name": "",
          "type": "bytes32",
          "internalType": "bytes32"
        }
      ],
      "stateMutability": "view"
    },
    {
      "type": "function",
      "name": "SIGNER_ROLE",
      "inputs": [],
      "outputs": [
        {
          "name": "",
          "type": "bytes32",
          "internalType": "bytes32"
        }
      ],
      "stateMutability": "view"
    },
    {
      "type": "function",
      "name": "UPGRADE_INTERFACE_VERSION",
      "inputs": [],
      "outputs": [
        {
          "name": "",
          "type": "string",
          "internalType": "string"
        }
      ],
      "stateMutability": "view"
    },
    {
      "type": "function",
      "name": "available",
      "inputs": [
        {
          "name": "asset_",
          "type": "address",
          "internalType": "address"
        },
        {
          "name": "vault_",
          "type": "address",
          "internalType": "address"
        },
        {
          "name": "account_",
          "type": "address",
          "internalType": "address"
        },
        {
          "name": "amount_",
          "type": "uint256",
          "internalType": "uint256"
        },
        {
          "name": "signer_",
          "type": "address",
          "internalType": "address"
        },
        {
          "name": "signature_",
          "type": "bytes",
          "internalType": "bytes"
        }
      ],
      "outputs": [
        {
          "name": "",
          "type": "uint256",
          "internalType": "uint256"
        }
      ],
      "stateMutability": "view"
    },
    {
      "type": "function",
      "name": "claim",
      "inputs": [
        {
          "name": "asset_",
          "type": "address",
          "internalType": "address"
        },
        {
          "name": "vault_",
          "type": "address",
          "internalType": "address"
        },
        {
          "name": "account_",
          "type": "address",
          "internalType": "address"
        },
        {
          "name": "amount_",
          "type": "uint256",
          "internalType": "uint256"
        },
        {
          "name": "signer_",
          "type": "address",
          "internalType": "address"
        },
        {
          "name": "signature_",
          "type": "bytes",
          "internalType": "bytes"
        }
      ],
      "outputs": [],
      "stateMutability": "nonpayable"
    },
    {
      "type": "function",
      "name": "claimed",
      "inputs": [
        {
          "name": "",
          "type": "address",
          "internalType": "address"
        }
      ],
      "outputs": [
        {
          "name": "",
          "type": "uint256",
          "internalType": "uint256"
        }
      ],
      "stateMutability": "view"
    },
    {
      "type": "function",
      "name": "eip712Domain",
      "inputs": [],
      "outputs": [
        {
          "name": "fields",
          "type": "bytes1",
          "internalType": "bytes1"
        },
        {
          "name": "name",
          "type": "string",
          "internalType": "string"
        },
        {
          "name": "version",
          "type": "string",
          "internalType": "string"
        },
        {
          "name": "chainId",
          "type": "uint256",
          "internalType": "uint256"
        },
        {
          "name": "verifyingContract",
          "type": "address",
          "internalType": "address"
        },
        {
          "name": "salt",
          "type": "bytes32",
          "internalType": "bytes32"
        },
        {
          "name": "extensions",
          "type": "uint256[]",
          "internalType": "uint256[]"
        }
      ],
      "stateMutability": "view"
    },
    {
      "type": "function",
      "name": "getRoleAdmin",
      "inputs": [
        {
          "name": "role",
          "type": "bytes32",
          "internalType": "bytes32"
        }
      ],
      "outputs": [
        {
          "name": "",
          "type": "bytes32",
          "internalType": "bytes32"
        }
      ],
      "stateMutability": "view"
    },
    {
      "type": "function",
      "name": "grantRole",
      "inputs": [
        {
          "name": "role",
          "type": "bytes32",
          "internalType": "bytes32"
        },
        {
          "name": "account",
          "type": "address",
          "internalType": "address"
        }
      ],
      "outputs": [],
      "stateMutability": "nonpayable"
    },
    {
      "type": "function",
      "name": "hasRole",
      "inputs": [
        {
          "name": "role",
          "type": "bytes32",
          "internalType": "bytes32"
        },
        {
          "name": "account",
          "type": "address",
          "internalType": "address"
        }
      ],
      "outputs": [
        {
          "name": "",
          "type": "bool",
          "internalType": "bool"
        }
      ],
      "stateMutability": "view"
    },
    {
      "type": "function",
      "name": "initialize",
      "inputs": [
        {
          "name": "staking_",
          "type": "address",
          "internalType": "contract StakingUpgradeable"
        },
        {
          "name": "name_",
          "type": "string",
          "internalType": "string"
        },
        {
          "name": "version_",
          "type": "string",
          "internalType": "string"
        }
      ],
      "outputs": [],
      "stateMutability": "nonpayable"
    },
    {
      "type": "function",
      "name": "proxiableUUID",
      "inputs": [],
      "outputs": [
        {
          "name": "",
          "type": "bytes32",
          "internalType": "bytes32"
        }
      ],
      "stateMutability": "view"
    },
    {
      "type": "function",
      "name": "renounceRole",
      "inputs": [
        {
          "name": "role",
          "type": "bytes32",
          "internalType": "bytes32"
        },
        {
          "name": "callerConfirmation",
          "type": "address",
          "internalType": "address"
        }
      ],
      "outputs": [],
      "stateMutability": "nonpayable"
    },
    {
      "type": "function",
      "name": "revokeRole",
      "inputs": [
        {
          "name": "role",
          "type": "bytes32",
          "internalType": "bytes32"
        },
        {
          "name": "account",
          "type": "address",
          "internalType": "address"
        }
      ],
      "outputs": [],
      "stateMutability": "nonpayable"
    },
    {
      "type": "function",
      "name": "staking",
      "inputs": [],
      "outputs": [
        {
          "name": "",
          "type": "address",
          "internalType": "contract StakingUpgradeable"
        }
      ],
      "stateMutability": "view"
    },
    {
      "type": "function",
      "name": "supportsInterface",
      "inputs": [
        {
          "name": "interfaceId",
          "type": "bytes4",
          "internalType": "bytes4"
        }
      ],
      "outputs": [
        {
          "name": "",
          "type": "bool",
          "internalType": "bool"
        }
      ],
      "stateMutability": "view"
    },
    {
      "type": "function",
      "name": "upgradeToAndCall",
      "inputs": [
        {
          "name": "newImplementation",
          "type": "address",
          "internalType": "address"
        },
        {
          "name": "data",
          "type": "bytes",
          "internalType": "bytes"
        }
      ],
      "outputs": [],
      "stateMutability": "payable"
    },
    {
      "type": "event",
      "name": "Claimed",
      "inputs": [
        {
          "name": "staking",
          "type": "address",
          "indexed": true,
          "internalType": "address"
        },
        {
          "name": "asset",
          "type": "address",
          "indexed": true,
          "internalType": "address"
        },
        {
          "name": "account",
          "type": "address",
          "indexed": true,
          "internalType": "address"
        },
        {
          "name": "vault",
          "type": "address",
          "indexed": false,
          "internalType": "address"
        },
        {
          "name": "amount",
          "type": "uint256",
          "indexed": false,
          "internalType": "uint256"
        }
      ],
      "anonymous": false
    },
    {
      "type": "event",
      "name": "EIP712DomainChanged",
      "inputs": [],
      "anonymous": false
    },
    {
      "type": "event",
      "name": "Initialized",
      "inputs": [
        {
          "name": "version",
          "type": "uint64",
          "indexed": false,
          "internalType": "uint64"
        }
      ],
      "anonymous": false
    },
    {
      "type": "event",
      "name": "Initialized",
      "inputs": [
        {
          "name": "staking",
          "type": "address",
          "indexed": true,
          "internalType": "address"
        },
        {
          "name": "name",
          "type": "string",
          "indexed": false,
          "internalType": "string"
        },
        {
          "name": "version",
          "type": "string",
          "indexed": false,
          "internalType": "string"
        }
      ],
      "anonymous": false
    },
    {
      "type": "event",
      "name": "RoleAdminChanged",
      "inputs": [
        {
          "name": "role",
          "type": "bytes32",
          "indexed": true,
          "internalType": "bytes32"
        },
        {
          "name": "previousAdminRole",
          "type": "bytes32",
          "indexed": true,
          "internalType": "bytes32"
        },
        {
          "name": "newAdminRole",
          "type": "bytes32",
          "indexed": true,
          "internalType": "bytes32"
        }
      ],
      "anonymous": false
    },
    {
      "type": "event",
      "name": "RoleGranted",
      "inputs": [
        {
          "name": "role",
          "type": "bytes32",
          "indexed": true,
          "internalType": "bytes32"
        },
        {
          "name": "account",
          "type": "address",
          "indexed": true,
          "internalType": "address"
        },
        {
          "name": "sender",
          "type": "address",
          "indexed": true,
          "internalType": "address"
        }
      ],
      "anonymous": false
    },
    {
      "type": "event",
      "name": "RoleRevoked",
      "inputs": [
        {
          "name": "role",
          "type": "bytes32",
          "indexed": true,
          "internalType": "bytes32"
        },
        {
          "name": "account",
          "type": "address",
          "indexed": true,
          "internalType": "address"
        },
        {
          "name": "sender",
          "type": "address",
          "indexed": true,
          "internalType": "address"
        }
      ],
      "anonymous": false
    },
    {
      "type": "event",
      "name": "Upgraded",
      "inputs": [
        {
          "name": "implementation",
          "type": "address",
          "indexed": true,
          "internalType": "address"
        }
      ],
      "anonymous": false
    },
    {
      "type": "error",
      "name": "AccessControlBadConfirmation",
      "inputs": []
    },
    {
      "type": "error",
      "name": "AccessControlUnauthorizedAccount",
      "inputs": [
        {
          "name": "account",
          "type": "address",
          "internalType": "address"
        },
        {
          "name": "neededRole",
          "type": "bytes32",
          "internalType": "bytes32"
        }
      ]
    },
    {
      "type": "error",
      "name": "AddressEmptyCode",
      "inputs": [
        {
          "name": "target",
          "type": "address",
          "internalType": "address"
        }
      ]
    },
    {
      "type": "error",
      "name": "ERC1967InvalidImplementation",
      "inputs": [
        {
          "name": "implementation",
          "type": "address",
          "internalType": "address"
        }
      ]
    },
    {
      "type": "error",
      "name": "ERC1967NonPayable",
      "inputs": []
    },
    {
      "type": "error",
      "name": "FailedInnerCall",
      "inputs": []
    },
    {
      "type": "error",
      "name": "InvalidInitialization",
      "inputs": []
    },
    {
      "type": "error",
      "name": "NotInitializing",
      "inputs": []
    },
    {
      "type": "error",
      "name": "NothingToClaim",
      "inputs": []
    },
    {
      "type": "error",
      "name": "UUPSUnauthorizedCallContext",
      "inputs": []
    },
    {
      "type": "error",
      "name": "UUPSUnsupportedProxiableUUID",
      "inputs": [
        {
          "name": "slot",
          "type": "bytes32",
          "internalType": "bytes32"
        }
      ]
    }
  ],
  "bytecode": {
    "object": "0x60a060405230608052348015610013575f5ffd5b5061001c610021565b6100d3565b7ff0c57e16840df040f15088dc2f81fe391c3923bec73e23a9662efc9c229c6a00805468010000000000000000900460ff16156100715760405163f92ee8a960e01b815260040160405180910390fd5b80546001600160401b03908116146100d05780546001600160401b0319166001600160401b0390811782556040519081527fc7f505b2f371ae2175ee4913f4499e1f2633a7b5936321eed1cdaeb6115181d29060200160405180910390a15b50565b608051611afc6100f95f395f8181610b3b01528181610b640152610ca70152611afc5ff3fe6080604052600436106100fa575f3560e01c806384b0196e11610092578063a217fddf11610062578063a217fddf146102b3578063ad3cb1cc146102c6578063c884ef8314610303578063d547741f1461032e578063e48d08e51461034d575f5ffd5b806384b0196e1461021b578063906571471461024257806391d1485414610261578063a1ebf35d14610280575f5ffd5b80634cf088d9116100cd5780634cf088d91461019f5780634f1ef286146101d557806352d1902d146101e85780635c436149146101fc575f5ffd5b806301ffc9a7146100fe578063248a9ca3146101325780632f2ff15d1461015f57806336568abe14610180575b5f5ffd5b348015610109575f5ffd5b5061011d610118366004611475565b61036c565b60405190151581526020015b60405180910390f35b34801561013d575f5ffd5b5061015161014c36600461149c565b6103a2565b604051908152602001610129565b34801561016a575f5ffd5b5061017e6101793660046114c7565b6103c2565b005b34801561018b575f5ffd5b5061017e61019a3660046114c7565b6103e4565b3480156101aa575f5ffd5b505f546101bd906001600160a01b031681565b6040516001600160a01b039091168152602001610129565b61017e6101e3366004611580565b61041c565b3480156101f3575f5ffd5b5061015161043b565b348015610207575f5ffd5b5061017e6102163660046115e0565b610456565b348015610226575f5ffd5b5061022f610687565b60405161012997969594939291906116ee565b34801561024d575f5ffd5b5061017e61025c3660046117a2565b610735565b34801561026c575f5ffd5b5061011d61027b3660046114c7565b6108b8565b34801561028b575f5ffd5b506101517fe2f4eaae4a9751e85a3e4a7b9587827a877f29914755229b07a7b2da98285f7081565b3480156102be575f5ffd5b506101515f81565b3480156102d1575f5ffd5b506102f6604051806040016040528060058152602001640352e302e360dc1b81525081565b6040516101299190611818565b34801561030e575f5ffd5b5061015161031d36600461182a565b60016020525f908152604090205481565b348015610339575f5ffd5b5061017e6103483660046114c7565b6108ee565b348015610358575f5ffd5b506101516103673660046115e0565b61090a565b5f6001600160e01b03198216637965db0b60e01b148061039c57506301ffc9a760e01b6001600160e01b03198316145b92915050565b5f9081525f516020611aa75f395f51905f52602052604090206001015490565b6103cb826103a2565b6103d481610a09565b6103de8383610a16565b50505050565b6001600160a01b038116331461040d5760405163334bd91960e11b815260040160405180910390fd5b6104178282610ab7565b505050565b610424610b30565b61042d82610bd6565b6104378282610be0565b5050565b5f610444610c9c565b505f516020611a875f395f51905f5290565b61045f83610ce5565b5f61046f8888888888888861090a565b9050805f03610491576040516312d37ee560e31b815260040160405180910390fd5b6001600160a01b0386165f90815260016020526040812080548392906104b8908490611859565b90915550506001600160a01b0387163014610545576040516323b872dd60e01b81526001600160a01b038881166004830152306024830152604482018390528916906323b872dd906064016020604051808303815f875af115801561051f573d5f5f3e3d5ffd5b505050506040513d601f19601f82011682018060405250810190610543919061186c565b505b5f5460405163095ea7b360e01b81526001600160a01b039182166004820152602481018390529089169063095ea7b3906044016020604051808303815f875af1158015610594573d5f5f3e3d5ffd5b505050506040513d601f19601f820116820180604052508101906105b8919061186c565b505f54604051636e553f6560e01b8152600481018390526001600160a01b03888116602483015290911690636e553f65906044016020604051808303815f875af1158015610608573d5f5f3e3d5ffd5b505050506040513d601f19601f8201168201806040525081019061062c919061188b565b505f54604080516001600160a01b038a8116825260208201859052898116938c8216939116917f4ccfdd58de1f86e31ebe8caec4f0202a1629eb9cdae4e5b0dfe40fabd81f4855910160405180910390a45050505050505050565b5f60608082808083815f516020611a675f395f51905f5280549091501580156106b257506001810154155b6106fb5760405162461bcd60e51b81526020600482015260156024820152741152540dcc4c8e88155b9a5b9a5d1a585b1a5e9959605a1b60448201526064015b60405180910390fd5b610703610d0f565b61070b610dcf565b604080515f80825260208201909252600f60f81b9c939b5091995046985030975095509350915050565b7ff0c57e16840df040f15088dc2f81fe391c3923bec73e23a9662efc9c229c6a008054600160401b810460ff16159067ffffffffffffffff165f8115801561077a5750825b90505f8267ffffffffffffffff1660011480156107965750303b155b9050811580156107a4575080155b156107c25760405163f92ee8a960e01b815260040160405180910390fd5b845467ffffffffffffffff1916600117855583156107ec57845460ff60401b1916600160401b1785555b6107f68787610e0d565b6107fe610e1f565b610806610e1f565b6108105f33610a16565b505f80546001600160a01b0319166001600160a01b038a169081179091556040517f82dfd53401a55bb491abcb3e7a97c99da1ed7eaffd89721d3e96e8e8ad4a692d90610860908a908a906118a2565b60405180910390a283156108ae57845460ff60401b19168555604051600181527fc7f505b2f371ae2175ee4913f4499e1f2633a7b5936321eed1cdaeb6115181d29060200160405180910390a15b5050505050505050565b5f9182525f516020611aa75f395f51905f52602090815260408084206001600160a01b0393909316845291905290205460ff1690565b6108f7826103a2565b61090081610a09565b6103de8383610ab7565b604080517f9c307ded16f7e2da1ff407b2234806f4cd650c9711b3326ccf5d6afaacb375ca6020808301919091526001600160a01b038a81168385015289811660608401528816608083015260a08083018890528351808403909101815260c090920190925280519101205f908161098182610e27565b90505f6109c4878388888080601f0160208091040260200160405190810160405280939291908181526020018383808284375f92019190915250610e5392505050565b9050806109d6575f93505050506109fe565b6001600160a01b0389165f908152600160205260409020546109f890896118c6565b93505050505b979650505050505050565b610a138133610eb4565b50565b5f5f516020611aa75f395f51905f52610a2f84846108b8565b610aae575f848152602082815260408083206001600160a01b03871684529091529020805460ff19166001179055610a643390565b6001600160a01b0316836001600160a01b0316857f2f8788117e7eff1d82e926ec794901d17c78024a50270940304540a733656f0d60405160405180910390a4600191505061039c565b5f91505061039c565b5f5f516020611aa75f395f51905f52610ad084846108b8565b15610aae575f848152602082815260408083206001600160a01b0387168085529252808320805460ff1916905551339287917ff6391f5c32d9c69d2a47ea670b442974b53935d1edc7fd64eb21e047a839171b9190a4600191505061039c565b306001600160a01b037f0000000000000000000000000000000000000000000000000000000000000000161480610bb657507f00000000000000000000000000000000000000000000000000000000000000006001600160a01b0316610baa5f516020611a875f395f51905f52546001600160a01b031690565b6001600160a01b031614155b15610bd45760405163703e46dd60e11b815260040160405180910390fd5b565b5f61043781610a09565b816001600160a01b03166352d1902d6040518163ffffffff1660e01b8152600401602060405180830381865afa925050508015610c3a575060408051601f3d908101601f19168201909252610c379181019061188b565b60015b610c6257604051634c9c8ce360e01b81526001600160a01b03831660048201526024016106f2565b5f516020611a875f395f51905f528114610c9257604051632a87526960e21b8152600481018290526024016106f2565b6104178383610eed565b306001600160a01b037f00000000000000000000000000000000000000000000000000000000000000001614610bd45760405163703e46dd60e11b815260040160405180910390fd5b610a137fe2f4eaae4a9751e85a3e4a7b9587827a877f29914755229b07a7b2da98285f7082610eb4565b7fa16a46d94261c7517cc8ff89f61c0ce93598e3c849801011dee649a6a557d10280546060915f516020611a675f395f51905f5291610d4d906118d9565b80601f0160208091040260200160405190810160405280929190818152602001828054610d79906118d9565b8015610dc45780601f10610d9b57610100808354040283529160200191610dc4565b820191905f5260205f20905b815481529060010190602001808311610da757829003601f168201915b505050505091505090565b7fa16a46d94261c7517cc8ff89f61c0ce93598e3c849801011dee649a6a557d10380546060915f516020611a675f395f51905f5291610d4d906118d9565b610e15610f42565b6104378282610f8b565b610bd4610f42565b5f61039c610e33610fea565b8360405161190160f01b8152600281019290925260228201526042902090565b5f5f5f610e608585610ff8565b5090925090505f816003811115610e7957610e79611911565b148015610e975750856001600160a01b0316826001600160a01b0316145b80610ea85750610ea8868686611041565b925050505b9392505050565b610ebe82826108b8565b6104375760405163e2517d3f60e01b81526001600160a01b0382166004820152602481018390526044016106f2565b610ef682611117565b6040516001600160a01b038316907fbc7cd75a20ee27fd9adebab32041f755214dbc6bffa90cc0225b39da2e5c2d3b905f90a2805115610f3a57610417828261117a565b6104376111ec565b7ff0c57e16840df040f15088dc2f81fe391c3923bec73e23a9662efc9c229c6a0054600160401b900460ff16610bd457604051631afcd79f60e31b815260040160405180910390fd5b610f93610f42565b5f516020611a675f395f51905f527fa16a46d94261c7517cc8ff89f61c0ce93598e3c849801011dee649a6a557d102610fcc8482611970565b5060038101610fdb8382611970565b505f8082556001909101555050565b5f610ff361120b565b905090565b5f5f5f835160410361102f576020840151604085015160608601515f1a6110218882858561127e565b95509550955050505061103a565b505081515f91506002905b9250925092565b5f5f5f856001600160a01b03168585604051602401611061929190611a2b565b60408051601f198184030181529181526020820180516001600160e01b0316630b135d3f60e11b179052516110969190611a4b565b5f60405180830381855afa9150503d805f81146110ce576040519150601f19603f3d011682016040523d82523d5f602084013e6110d3565b606091505b50915091508180156110e757506020815110155b8015610ea857508051630b135d3f60e11b9061110c908301602090810190840161188b565b149695505050505050565b806001600160a01b03163b5f0361114c57604051634c9c8ce360e01b81526001600160a01b03821660048201526024016106f2565b5f516020611a875f395f51905f5280546001600160a01b0319166001600160a01b0392909216919091179055565b60605f5f846001600160a01b0316846040516111969190611a4b565b5f60405180830381855af49150503d805f81146111ce576040519150601f19603f3d011682016040523d82523d5f602084013e6111d3565b606091505b50915091506111e3858383611346565b95945050505050565b3415610bd45760405163b398979f60e01b815260040160405180910390fd5b5f7f8b73c3c69bb8fe3d512ecc4cf759cc79239f7b179b0ffacaa9a75d522b39400f6112356113a2565b61123d61140a565b60408051602081019490945283019190915260608201524660808201523060a082015260c00160405160208183030381529060405280519060200120905090565b5f80807f7fffffffffffffffffffffffffffffff5d576e7357a4501ddfe92f46681b20a08411156112b757505f9150600390508261133c565b604080515f808252602082018084528a905260ff891692820192909252606081018790526080810186905260019060a0016020604051602081039080840390855afa158015611308573d5f5f3e3d5ffd5b5050604051601f1901519150506001600160a01b03811661133357505f92506001915082905061133c565b92505f91508190505b9450945094915050565b60608261135b576113568261144c565b610ead565b815115801561137257506001600160a01b0384163b155b1561139b57604051639996b31560e01b81526001600160a01b03851660048201526024016106f2565b5080610ead565b5f5f516020611a675f395f51905f52816113ba610d0f565b8051909150156113d257805160209091012092915050565b815480156113e1579392505050565b7fc5d2460186f7233c927e7db2dcc703c0e500b653ca82273b7bfad8045d85a470935050505090565b5f5f516020611a675f395f51905f5281611422610dcf565b80519091501561143a57805160209091012092915050565b600182015480156113e1579392505050565b80511561145c5780518082602001fd5b604051630a12f52160e11b815260040160405180910390fd5b5f60208284031215611485575f5ffd5b81356001600160e01b031981168114610ead575f5ffd5b5f602082840312156114ac575f5ffd5b5035919050565b6001600160a01b0381168114610a13575f5ffd5b5f5f604083850312156114d8575f5ffd5b8235915060208301356114ea816114b3565b809150509250929050565b634e487b7160e01b5f52604160045260245ffd5b5f5f67ffffffffffffffff841115611523576115236114f5565b50604051601f19601f85018116603f0116810181811067ffffffffffffffff82111715611552576115526114f5565b604052838152905080828401851015611569575f5ffd5b838360208301375f60208583010152509392505050565b5f5f60408385031215611591575f5ffd5b823561159c816114b3565b9150602083013567ffffffffffffffff8111156115b7575f5ffd5b8301601f810185136115c7575f5ffd5b6115d685823560208401611509565b9150509250929050565b5f5f5f5f5f5f5f60c0888a0312156115f6575f5ffd5b8735611601816114b3565b96506020880135611611816114b3565b95506040880135611621816114b3565b9450606088013593506080880135611638816114b3565b925060a088013567ffffffffffffffff811115611653575f5ffd5b8801601f81018a13611663575f5ffd5b803567ffffffffffffffff811115611679575f5ffd5b8a602082840101111561168a575f5ffd5b602082019350809250505092959891949750929550565b5f5b838110156116bb5781810151838201526020016116a3565b50505f910152565b5f81518084526116da8160208601602086016116a1565b601f01601f19169290920160200192915050565b60ff60f81b8816815260e060208201525f61170c60e08301896116c3565b828103604084015261171e81896116c3565b606084018890526001600160a01b038716608085015260a0840186905283810360c0850152845180825260208087019350909101905f5b81811015611773578351835260209384019390920191600101611755565b50909b9a5050505050505050505050565b5f82601f830112611793575f5ffd5b610ead83833560208501611509565b5f5f5f606084860312156117b4575f5ffd5b83356117bf816114b3565b9250602084013567ffffffffffffffff8111156117da575f5ffd5b6117e686828701611784565b925050604084013567ffffffffffffffff811115611802575f5ffd5b61180e86828701611784565b9150509250925092565b602081525f610ead60208301846116c3565b5f6020828403121561183a575f5ffd5b8135610ead816114b3565b634e487b7160e01b5f52601160045260245ffd5b8082018082111561039c5761039c611845565b5f6020828403121561187c575f5ffd5b81518015158114610ead575f5ffd5b5f6020828403121561189b575f5ffd5b5051919050565b604081525f6118b460408301856116c3565b82810360208401526111e381856116c3565b8181038181111561039c5761039c611845565b600181811c908216806118ed57607f821691505b60208210810361190b57634e487b7160e01b5f52602260045260245ffd5b50919050565b634e487b7160e01b5f52602160045260245ffd5b601f82111561041757805f5260205f20601f840160051c8101602085101561194a5750805b601f840160051c820191505b81811015611969575f8155600101611956565b5050505050565b815167ffffffffffffffff81111561198a5761198a6114f5565b61199e8161199884546118d9565b84611925565b6020601f8211600181146119d0575f83156119b95750848201515b5f19600385901b1c1916600184901b178455611969565b5f84815260208120601f198516915b828110156119ff57878501518255602094850194600190920191016119df565b5084821015611a1c57868401515f19600387901b60f8161c191681555b50505050600190811b01905550565b828152604060208201525f611a4360408301846116c3565b949350505050565b5f8251611a5c8184602087016116a1565b919091019291505056fea16a46d94261c7517cc8ff89f61c0ce93598e3c849801011dee649a6a557d100360894a13ba1a3210667c828492db98dca3e2076cc3735a920a3ca505d382bbc02dd7bc7dec4dceedda775e58dd541e08a116c6c53815c0bd028192f7b626800a2646970667358221220765f3a9dcb523425c66f06ed8cccf2f2dd6d5208830e7cdeb3d95028a4c4c38364736f6c634300081c0033",
    "linkReferences": {}
  },
  "methodIdentifiers": {
    "DEFAULT_ADMIN_ROLE()": "a217fddf",
    "SIGNER_ROLE()": "a1ebf35d",
    "UPGRADE_INTERFACE_VERSION()": "ad3cb1cc",
    "available(address,address,address,uint256,address,bytes)": "e48d08e5",
    "claim(address,address,address,uint256,address,bytes)": "5c436149",
    "claimed(address)": "c884ef83",
    "eip712Domain()": "84b0196e",
    "getRoleAdmin(bytes32)": "248a9ca3",
    "grantRole(bytes32,address)": "2f2ff15d",
    "hasRole(bytes32,address)": "91d14854",
    "initialize(address,string,string)": "90657147",
    "proxiableUUID()": "52d1902d",
    "renounceRole(bytes32,address)": "36568abe",
    "revokeRole(bytes32,address)": "d547741f",
    "staking()": "4cf088d9",
    "supportsInterface(bytes4)": "01ffc9a7",
    "upgradeToAndCall(address,bytes)": "4f1ef286"
  },
  "id": 44
}