{
  "abi": [
    {
      "type": "constructor",
      "inputs": [],
      "stateMutability": "nonpayable"
    },
    {
      "type": "function",
      "name": "DEFAULT_ADMIN_ROLE",
      "inputs": [],
      "outputs": [
        {
          "name": "",
          "type": "bytes32",
          "internalType": "bytes32"
        }
      ],
      "stateMutability": "view"
    },
    {
      "type": "function",
      "name": "UPGRADE_INTERFACE_VERSION",
      "inputs": [],
      "outputs": [
        {
          "name": "",
          "type": "string",
          "internalType": "string"
        }
      ],
      "stateMutability": "view"
    },
    {
      "type": "function",
      "name": "allowance",
      "inputs": [
        {
          "name": "owner",
          "type": "address",
          "internalType": "address"
        },
        {
          "name": "spender",
          "type": "address",
          "internalType": "address"
        }
      ],
      "outputs": [
        {
          "name": "",
          "type": "uint256",
          "internalType": "uint256"
        }
      ],
      "stateMutability": "view"
    },
    {
      "type": "function",
      "name": "approve",
      "inputs": [
        {
          "name": "spender",
          "type": "address",
          "internalType": "address"
        },
        {
          "name": "value",
          "type": "uint256",
          "internalType": "uint256"
        }
      ],
      "outputs": [
        {
          "name": "",
          "type": "bool",
          "internalType": "bool"
        }
      ],
      "stateMutability": "nonpayable"
    },
    {
      "type": "function",
      "name": "asset",
      "inputs": [],
      "outputs": [
        {
          "name": "",
          "type": "address",
          "internalType": "address"
        }
      ],
      "stateMutability": "view"
    },
    {
      "type": "function",
      "name": "balanceOf",
      "inputs": [
        {
          "name": "account",
          "type": "address",
          "internalType": "address"
        }
      ],
      "outputs": [
        {
          "name": "",
          "type": "uint256",
          "internalType": "uint256"
        }
      ],
      "stateMutability": "view"
    },
    {
      "type": "function",
      "name": "convertToAssets",
      "inputs": [
        {
          "name": "shares",
          "type": "uint256",
          "internalType": "uint256"
        }
      ],
      "outputs": [
        {
          "name": "",
          "type": "uint256",
          "internalType": "uint256"
        }
      ],
      "stateMutability": "view"
    },
    {
      "type": "function",
      "name": "convertToShares",
      "inputs": [
        {
          "name": "assets",
          "type": "uint256",
          "internalType": "uint256"
        }
      ],
      "outputs": [
        {
          "name": "",
          "type": "uint256",
          "internalType": "uint256"
        }
      ],
      "stateMutability": "view"
    },
    {
      "type": "function",
      "name": "cooldownTime",
      "inputs": [],
      "outputs": [
        {
          "name": "",
          "type": "uint256",
          "internalType": "uint256"
        }
      ],
      "stateMutability": "view"
    },
    {
      "type": "function",
      "name": "coolingDown",
      "inputs": [
        {
          "name": "owner",
          "type": "address",
          "internalType": "address"
        }
      ],
      "outputs": [
        {
          "name": "",
          "type": "uint256",
          "internalType": "uint256"
        }
      ],
      "stateMutability": "view"
    },
    {
      "type": "function",
      "name": "decimals",
      "inputs": [],
      "outputs": [
        {
          "name": "",
          "type": "uint8",
          "internalType": "uint8"
        }
      ],
      "stateMutability": "view"
    },
    {
      "type": "function",
      "name": "deposit",
      "inputs": [
        {
          "name": "assets",
          "type": "uint256",
          "internalType": "uint256"
        },
        {
          "name": "receiver",
          "type": "address",
          "internalType": "address"
        }
      ],
      "outputs": [
        {
          "name": "",
          "type": "uint256",
          "internalType": "uint256"
        }
      ],
      "stateMutability": "nonpayable"
    },
    {
      "type": "function",
      "name": "getRoleAdmin",
      "inputs": [
        {
          "name": "role",
          "type": "bytes32",
          "internalType": "bytes32"
        }
      ],
      "outputs": [
        {
          "name": "",
          "type": "bytes32",
          "internalType": "bytes32"
        }
      ],
      "stateMutability": "view"
    },
    {
      "type": "function",
      "name": "grantRole",
      "inputs": [
        {
          "name": "role",
          "type": "bytes32",
          "internalType": "bytes32"
        },
        {
          "name": "account",
          "type": "address",
          "internalType": "address"
        }
      ],
      "outputs": [],
      "stateMutability": "nonpayable"
    },
    {
      "type": "function",
      "name": "hasRole",
      "inputs": [
        {
          "name": "role",
          "type": "bytes32",
          "internalType": "bytes32"
        },
        {
          "name": "account",
          "type": "address",
          "internalType": "address"
        }
      ],
      "outputs": [
        {
          "name": "",
          "type": "bool",
          "internalType": "bool"
        }
      ],
      "stateMutability": "view"
    },
    {
      "type": "function",
      "name": "initialize",
      "inputs": [
        {
          "name": "asset",
          "type": "address",
          "internalType": "address"
        },
        {
          "name": "name",
          "type": "string",
          "internalType": "string"
        },
        {
          "name": "symbol",
          "type": "string",
          "internalType": "string"
        },
        {
          "name": "cooldownTime_",
          "type": "uint256",
          "internalType": "uint256"
        }
      ],
      "outputs": [],
      "stateMutability": "nonpayable"
    },
    {
      "type": "function",
      "name": "maxDeposit",
      "inputs": [
        {
          "name": "",
          "type": "address",
          "internalType": "address"
        }
      ],
      "outputs": [
        {
          "name": "",
          "type": "uint256",
          "internalType": "uint256"
        }
      ],
      "stateMutability": "view"
    },
    {
      "type": "function",
      "name": "maxMint",
      "inputs": [
        {
          "name": "",
          "type": "address",
          "internalType": "address"
        }
      ],
      "outputs": [
        {
          "name": "",
          "type": "uint256",
          "internalType": "uint256"
        }
      ],
      "stateMutability": "view"
    },
    {
      "type": "function",
      "name": "maxRedeem",
      "inputs": [
        {
          "name": "owner",
          "type": "address",
          "internalType": "address"
        }
      ],
      "outputs": [
        {
          "name": "",
          "type": "uint256",
          "internalType": "uint256"
        }
      ],
      "stateMutability": "view"
    },
    {
      "type": "function",
      "name": "maxRequestRedeem",
      "inputs": [
        {
          "name": "owner",
          "type": "address",
          "internalType": "address"
        }
      ],
      "outputs": [
        {
          "name": "",
          "type": "uint256",
          "internalType": "uint256"
        }
      ],
      "stateMutability": "view"
    },
    {
      "type": "function",
      "name": "maxRequestWithdraw",
      "inputs": [
        {
          "name": "owner",
          "type": "address",
          "internalType": "address"
        }
      ],
      "outputs": [
        {
          "name": "",
          "type": "uint256",
          "internalType": "uint256"
        }
      ],
      "stateMutability": "view"
    },
    {
      "type": "function",
      "name": "maxWithdraw",
      "inputs": [
        {
          "name": "owner",
          "type": "address",
          "internalType": "address"
        }
      ],
      "outputs": [
        {
          "name": "",
          "type": "uint256",
          "internalType": "uint256"
        }
      ],
      "stateMutability": "view"
    },
    {
      "type": "function",
      "name": "mint",
      "inputs": [
        {
          "name": "shares",
          "type": "uint256",
          "internalType": "uint256"
        },
        {
          "name": "receiver",
          "type": "address",
          "internalType": "address"
        }
      ],
      "outputs": [
        {
          "name": "",
          "type": "uint256",
          "internalType": "uint256"
        }
      ],
      "stateMutability": "nonpayable"
    },
    {
      "type": "function",
      "name": "name",
      "inputs": [],
      "outputs": [
        {
          "name": "",
          "type": "string",
          "internalType": "string"
        }
      ],
      "stateMutability": "view"
    },
    {
      "type": "function",
      "name": "previewDeposit",
      "inputs": [
        {
          "name": "assets",
          "type": "uint256",
          "internalType": "uint256"
        }
      ],
      "outputs": [
        {
          "name": "",
          "type": "uint256",
          "internalType": "uint256"
        }
      ],
      "stateMutability": "view"
    },
    {
      "type": "function",
      "name": "previewMint",
      "inputs": [
        {
          "name": "shares",
          "type": "uint256",
          "internalType": "uint256"
        }
      ],
      "outputs": [
        {
          "name": "",
          "type": "uint256",
          "internalType": "uint256"
        }
      ],
      "stateMutability": "view"
    },
    {
      "type": "function",
      "name": "previewRedeem",
      "inputs": [
        {
          "name": "shares",
          "type": "uint256",
          "internalType": "uint256"
        }
      ],
      "outputs": [
        {
          "name": "",
          "type": "uint256",
          "internalType": "uint256"
        }
      ],
      "stateMutability": "view"
    },
    {
      "type": "function",
      "name": "previewWithdraw",
      "inputs": [
        {
          "name": "assets",
          "type": "uint256",
          "internalType": "uint256"
        }
      ],
      "outputs": [
        {
          "name": "",
          "type": "uint256",
          "internalType": "uint256"
        }
      ],
      "stateMutability": "view"
    },
    {
      "type": "function",
      "name": "proxiableUUID",
      "inputs": [],
      "outputs": [
        {
          "name": "",
          "type": "bytes32",
          "internalType": "bytes32"
        }
      ],
      "stateMutability": "view"
    },
    {
      "type": "function",
      "name": "redeem",
      "inputs": [
        {
          "name": "shares",
          "type": "uint256",
          "internalType": "uint256"
        },
        {
          "name": "receiver",
          "type": "address",
          "internalType": "address"
        },
        {
          "name": "owner",
          "type": "address",
          "internalType": "address"
        }
      ],
      "outputs": [
        {
          "name": "",
          "type": "uint256",
          "internalType": "uint256"
        }
      ],
      "stateMutability": "nonpayable"
    },
    {
      "type": "function",
      "name": "releaseTime",
      "inputs": [
        {
          "name": "owner",
          "type": "address",
          "internalType": "address"
        }
      ],
      "outputs": [
        {
          "name": "",
          "type": "uint256",
          "internalType": "uint256"
        }
      ],
      "stateMutability": "view"
    },
    {
      "type": "function",
      "name": "renounceRole",
      "inputs": [
        {
          "name": "role",
          "type": "bytes32",
          "internalType": "bytes32"
        },
        {
          "name": "callerConfirmation",
          "type": "address",
          "internalType": "address"
        }
      ],
      "outputs": [],
      "stateMutability": "nonpayable"
    },
    {
      "type": "function",
      "name": "requestRedeem",
      "inputs": [
        {
          "name": "shares",
          "type": "uint256",
          "internalType": "uint256"
        }
      ],
      "outputs": [],
      "stateMutability": "nonpayable"
    },
    {
      "type": "function",
      "name": "requestWithdraw",
      "inputs": [
        {
          "name": "assets",
          "type": "uint256",
          "internalType": "uint256"
        }
      ],
      "outputs": [],
      "stateMutability": "nonpayable"
    },
    {
      "type": "function",
      "name": "revokeRole",
      "inputs": [
        {
          "name": "role",
          "type": "bytes32",
          "internalType": "bytes32"
        },
        {
          "name": "account",
          "type": "address",
          "internalType": "address"
        }
      ],
      "outputs": [],
      "stateMutability": "nonpayable"
    },
    {
      "type": "function",
      "name": "setCooldown",
      "inputs": [
        {
          "name": "cooldownTime_",
          "type": "uint256",
          "internalType": "uint256"
        }
      ],
      "outputs": [],
      "stateMutability": "nonpayable"
    },
    {
      "type": "function",
      "name": "supportsInterface",
      "inputs": [
        {
          "name": "interfaceId",
          "type": "bytes4",
          "internalType": "bytes4"
        }
      ],
      "outputs": [
        {
          "name": "",
          "type": "bool",
          "internalType": "bool"
        }
      ],
      "stateMutability": "view"
    },
    {
      "type": "function",
      "name": "symbol",
      "inputs": [],
      "outputs": [
        {
          "name": "",
          "type": "string",
          "internalType": "string"
        }
      ],
      "stateMutability": "view"
    },
    {
      "type": "function",
      "name": "totalAssets",
      "inputs": [],
      "outputs": [
        {
          "name": "",
          "type": "uint256",
          "internalType": "uint256"
        }
      ],
      "stateMutability": "view"
    },
    {
      "type": "function",
      "name": "totalSupply",
      "inputs": [],
      "outputs": [
        {
          "name": "",
          "type": "uint256",
          "internalType": "uint256"
        }
      ],
      "stateMutability": "view"
    },
    {
      "type": "function",
      "name": "transfer",
      "inputs": [
        {
          "name": "to",
          "type": "address",
          "internalType": "address"
        },
        {
          "name": "value",
          "type": "uint256",
          "internalType": "uint256"
        }
      ],
      "outputs": [
        {
          "name": "",
          "type": "bool",
          "internalType": "bool"
        }
      ],
      "stateMutability": "nonpayable"
    },
    {
      "type": "function",
      "name": "transferFrom",
      "inputs": [
        {
          "name": "from",
          "type": "address",
          "internalType": "address"
        },
        {
          "name": "to",
          "type": "address",
          "internalType": "address"
        },
        {
          "name": "value",
          "type": "uint256",
          "internalType": "uint256"
        }
      ],
      "outputs": [
        {
          "name": "",
          "type": "bool",
          "internalType": "bool"
        }
      ],
      "stateMutability": "nonpayable"
    },
    {
      "type": "function",
      "name": "upgradeToAndCall",
      "inputs": [
        {
          "name": "newImplementation",
          "type": "address",
          "internalType": "address"
        },
        {
          "name": "data",
          "type": "bytes",
          "internalType": "bytes"
        }
      ],
      "outputs": [],
      "stateMutability": "payable"
    },
    {
      "type": "function",
      "name": "withdraw",
      "inputs": [
        {
          "name": "assets",
          "type": "uint256",
          "internalType": "uint256"
        },
        {
          "name": "receiver",
          "type": "address",
          "internalType": "address"
        },
        {
          "name": "owner",
          "type": "address",
          "internalType": "address"
        }
      ],
      "outputs": [
        {
          "name": "",
          "type": "uint256",
          "internalType": "uint256"
        }
      ],
      "stateMutability": "nonpayable"
    },
    {
      "type": "event",
      "name": "Approval",
      "inputs": [
        {
          "name": "owner",
          "type": "address",
          "indexed": true,
          "internalType": "address"
        },
        {
          "name": "spender",
          "type": "address",
          "indexed": true,
          "internalType": "address"
        },
        {
          "name": "value",
          "type": "uint256",
          "indexed": false,
          "internalType": "uint256"
        }
      ],
      "anonymous": false
    },
    {
      "type": "event",
      "name": "Deposit",
      "inputs": [
        {
          "name": "sender",
          "type": "address",
          "indexed": true,
          "internalType": "address"
        },
        {
          "name": "owner",
          "type": "address",
          "indexed": true,
          "internalType": "address"
        },
        {
          "name": "assets",
          "type": "uint256",
          "indexed": false,
          "internalType": "uint256"
        },
        {
          "name": "shares",
          "type": "uint256",
          "indexed": false,
          "internalType": "uint256"
        }
      ],
      "anonymous": false
    },
    {
      "type": "event",
      "name": "Initialized",
      "inputs": [
        {
          "name": "version",
          "type": "uint64",
          "indexed": false,
          "internalType": "uint64"
        }
      ],
      "anonymous": false
    },
    {
      "type": "event",
      "name": "RoleAdminChanged",
      "inputs": [
        {
          "name": "role",
          "type": "bytes32",
          "indexed": true,
          "internalType": "bytes32"
        },
        {
          "name": "previousAdminRole",
          "type": "bytes32",
          "indexed": true,
          "internalType": "bytes32"
        },
        {
          "name": "newAdminRole",
          "type": "bytes32",
          "indexed": true,
          "internalType": "bytes32"
        }
      ],
      "anonymous": false
    },
    {
      "type": "event",
      "name": "RoleGranted",
      "inputs": [
        {
          "name": "role",
          "type": "bytes32",
          "indexed": true,
          "internalType": "bytes32"
        },
        {
          "name": "account",
          "type": "address",
          "indexed": true,
          "internalType": "address"
        },
        {
          "name": "sender",
          "type": "address",
          "indexed": true,
          "internalType": "address"
        }
      ],
      "anonymous": false
    },
    {
      "type": "event",
      "name": "RoleRevoked",
      "inputs": [
        {
          "name": "role",
          "type": "bytes32",
          "indexed": true,
          "internalType": "bytes32"
        },
        {
          "name": "account",
          "type": "address",
          "indexed": true,
          "internalType": "address"
        },
        {
          "name": "sender",
          "type": "address",
          "indexed": true,
          "internalType": "address"
        }
      ],
      "anonymous": false
    },
    {
      "type": "event",
      "name": "StakingCoolingDown",
      "inputs": [
        {
          "name": "owner",
          "type": "address",
          "indexed": true,
          "internalType": "address"
        },
        {
          "name": "shares",
          "type": "uint256",
          "indexed": false,
          "internalType": "uint256"
        },
        {
          "name": "releaseTime",
          "type": "uint256",
          "indexed": false,
          "internalType": "uint256"
        }
      ],
      "anonymous": false
    },
    {
      "type": "event",
      "name": "StakingNewCooldownTime",
      "inputs": [
        {
          "name": "cooldownTime",
          "type": "uint256",
          "indexed": false,
          "internalType": "uint256"
        }
      ],
      "anonymous": false
    },
    {
      "type": "event",
      "name": "Transfer",
      "inputs": [
        {
          "name": "from",
          "type": "address",
          "indexed": true,
          "internalType": "address"
        },
        {
          "name": "to",
          "type": "address",
          "indexed": true,
          "internalType": "address"
        },
        {
          "name": "value",
          "type": "uint256",
          "indexed": false,
          "internalType": "uint256"
        }
      ],
      "anonymous": false
    },
    {
      "type": "event",
      "name": "Upgraded",
      "inputs": [
        {
          "name": "implementation",
          "type": "address",
          "indexed": true,
          "internalType": "address"
        }
      ],
      "anonymous": false
    },
    {
      "type": "event",
      "name": "Withdraw",
      "inputs": [
        {
          "name": "sender",
          "type": "address",
          "indexed": true,
          "internalType": "address"
        },
        {
          "name": "receiver",
          "type": "address",
          "indexed": true,
          "internalType": "address"
        },
        {
          "name": "owner",
          "type": "address",
          "indexed": true,
          "internalType": "address"
        },
        {
          "name": "assets",
          "type": "uint256",
          "indexed": false,
          "internalType": "uint256"
        },
        {
          "name": "shares",
          "type": "uint256",
          "indexed": false,
          "internalType": "uint256"
        }
      ],
      "anonymous": false
    },
    {
      "type": "error",
      "name": "AccessControlBadConfirmation",
      "inputs": []
    },
    {
      "type": "error",
      "name": "AccessControlUnauthorizedAccount",
      "inputs": [
        {
          "name": "account",
          "type": "address",
          "internalType": "address"
        },
        {
          "name": "neededRole",
          "type": "bytes32",
          "internalType": "bytes32"
        }
      ]
    },
    {
      "type": "error",
      "name": "AddressEmptyCode",
      "inputs": [
        {
          "name": "target",
          "type": "address",
          "internalType": "address"
        }
      ]
    },
    {
      "type": "error",
      "name": "AddressInsufficientBalance",
      "inputs": [
        {
          "name": "account",
          "type": "address",
          "internalType": "address"
        }
      ]
    },
    {
      "type": "error",
      "name": "ERC1967InvalidImplementation",
      "inputs": [
        {
          "name": "implementation",
          "type": "address",
          "internalType": "address"
        }
      ]
    },
    {
      "type": "error",
      "name": "ERC1967NonPayable",
      "inputs": []
    },
    {
      "type": "error",
      "name": "ERC20InsufficientAllowance",
      "inputs": [
        {
          "name": "spender",
          "type": "address",
          "internalType": "address"
        },
        {
          "name": "allowance",
          "type": "uint256",
          "internalType": "uint256"
        },
        {
          "name": "needed",
          "type": "uint256",
          "internalType": "uint256"
        }
      ]
    },
    {
      "type": "error",
      "name": "ERC20InsufficientBalance",
      "inputs": [
        {
          "name": "sender",
          "type": "address",
          "internalType": "address"
        },
        {
          "name": "balance",
          "type": "uint256",
          "internalType": "uint256"
        },
        {
          "name": "needed",
          "type": "uint256",
          "internalType": "uint256"
        }
      ]
    },
    {
      "type": "error",
      "name": "ERC20InvalidApprover",
      "inputs": [
        {
          "name": "approver",
          "type": "address",
          "internalType": "address"
        }
      ]
    },
    {
      "type": "error",
      "name": "ERC20InvalidReceiver",
      "inputs": [
        {
          "name": "receiver",
          "type": "address",
          "internalType": "address"
        }
      ]
    },
    {
      "type": "error",
      "name": "ERC20InvalidSender",
      "inputs": [
        {
          "name": "sender",
          "type": "address",
          "internalType": "address"
        }
      ]
    },
    {
      "type": "error",
      "name": "ERC20InvalidSpender",
      "inputs": [
        {
          "name": "spender",
          "type": "address",
          "internalType": "address"
        }
      ]
    },
    {
      "type": "error",
      "name": "ERC4626ExceededMaxDeposit",
      "inputs": [
        {
          "name": "receiver",
          "type": "address",
          "internalType": "address"
        },
        {
          "name": "assets",
          "type": "uint256",
          "internalType": "uint256"
        },
        {
          "name": "max",
          "type": "uint256",
          "internalType": "uint256"
        }
      ]
    },
    {
      "type": "error",
      "name": "ERC4626ExceededMaxMint",
      "inputs": [
        {
          "name": "receiver",
          "type": "address",
          "internalType": "address"
        },
        {
          "name": "shares",
          "type": "uint256",
          "internalType": "uint256"
        },
        {
          "name": "max",
          "type": "uint256",
          "internalType": "uint256"
        }
      ]
    },
    {
      "type": "error",
      "name": "ERC4626ExceededMaxRedeem",
      "inputs": [
        {
          "name": "owner",
          "type": "address",
          "internalType": "address"
        },
        {
          "name": "shares",
          "type": "uint256",
          "internalType": "uint256"
        },
        {
          "name": "max",
          "type": "uint256",
          "internalType": "uint256"
        }
      ]
    },
    {
      "type": "error",
      "name": "ERC4626ExceededMaxWithdraw",
      "inputs": [
        {
          "name": "owner",
          "type": "address",
          "internalType": "address"
        },
        {
          "name": "assets",
          "type": "uint256",
          "internalType": "uint256"
        },
        {
          "name": "max",
          "type": "uint256",
          "internalType": "uint256"
        }
      ]
    },
    {
      "type": "error",
      "name": "FailedInnerCall",
      "inputs": []
    },
    {
      "type": "error",
      "name": "InvalidInitialization",
      "inputs": []
    },
    {
      "type": "error",
      "name": "MathOverflowedMulDiv",
      "inputs": []
    },
    {
      "type": "error",
      "name": "NotInitializing",
      "inputs": []
    },
    {
      "type": "error",
      "name": "SafeERC20FailedOperation",
      "inputs": [
        {
          "name": "token",
          "type": "address",
          "internalType": "address"
        }
      ]
    },
    {
      "type": "error",
      "name": "StakingCooldownNotElapsed",
      "inputs": [
        {
          "name": "owner",
          "type": "address",
          "internalType": "address"
        },
        {
          "name": "releaseTime",
          "type": "uint256",
          "internalType": "uint256"
        }
      ]
    },
    {
      "type": "error",
      "name": "StakingExceededMaxRedeem",
      "inputs": [
        {
          "name": "owner",
          "type": "address",
          "internalType": "address"
        },
        {
          "name": "shares",
          "type": "uint256",
          "internalType": "uint256"
        },
        {
          "name": "maxShares",
          "type": "uint256",
          "internalType": "uint256"
        }
      ]
    },
    {
      "type": "error",
      "name": "StakingExceededMaxWithdraw",
      "inputs": [
        {
          "name": "owner",
          "type": "address",
          "internalType": "address"
        },
        {
          "name": "assets",
          "type": "uint256",
          "internalType": "uint256"
        },
        {
          "name": "maxAssets",
          "type": "uint256",
          "internalType": "uint256"
        }
      ]
    },
    {
      "type": "error",
      "name": "UUPSUnauthorizedCallContext",
      "inputs": []
    },
    {
      "type": "error",
      "name": "UUPSUnsupportedProxiableUUID",
      "inputs": [
        {
          "name": "slot",
          "type": "bytes32",
          "internalType": "bytes32"
        }
      ]
    }
  ],
  "bytecode": {
    "object": "0x60a060405230608052348015610013575f5ffd5b5061001c610021565b6100d3565b7ff0c57e16840df040f15088dc2f81fe391c3923bec73e23a9662efc9c229c6a00805468010000000000000000900460ff16156100715760405163f92ee8a960e01b815260040160405180910390fd5b80546001600160401b03908116146100d05780546001600160401b0319166001600160401b0390811782556040519081527fc7f505b2f371ae2175ee4913f4499e1f2633a7b5936321eed1cdaeb6115181d29060200160405180910390a15b50565b6080516127596100f95f395f81816112f001528181611319015261145a01526127595ff3fe60806040526004361061025f575f3560e01c8063745400c91161013f578063b460af94116100b3578063ce96cb7711610078578063ce96cb7714610710578063d547741f1461072f578063d905777e1461074e578063dd62ed3e1461076d578063e4eedb011461078c578063ef8b30f7146106f1575f5ffd5b8063b460af9414610694578063ba087652146106b3578063bf568c0a146106d2578063c63d75b614610481578063c6e6f592146106f1575f5ffd5b8063a217fddf11610104578063a217fddf146105d4578063a9059cbb146105e7578063aa2f892d14610606578063ad3cb1cc14610625578063b319c6b714610655578063b3d7f6b914610675575f5ffd5b8063745400c9146105445780637b05d3611461056357806391d148541461058257806394bf804d146105a157806395d89b41146105c0575f5ffd5b806334265c48116101d65780634d12d4b61161019b5780634d12d4b6146104a15780634f1ef286146104c05780634fc3f41a146104d357806352d1902d146104f25780636e553f651461050657806370a0823114610525575f5ffd5b806334265c48146103ef57806336568abe1461042f57806338d52e0f1461044e578063402d267d146104815780634cdad506146102da575f5ffd5b80630a28a477116102275780630a28a4771461031857806318160ddd1461033757806323b872dd1461036a578063248a9ca3146103895780632f2ff15d146103a8578063313ce567146103c9575f5ffd5b806301e1d1141461026357806301ffc9a71461028a57806306fdde03146102b957806307a2d13a146102da578063095ea7b3146102f9575b5f5ffd5b34801561026e575f5ffd5b506102776107ab565b6040519081526020015b60405180910390f35b348015610295575f5ffd5b506102a96102a4366004611feb565b61082b565b6040519015158152602001610281565b3480156102c4575f5ffd5b506102cd610861565b6040516102819190612034565b3480156102e5575f5ffd5b506102776102f4366004612066565b610921565b348015610304575f5ffd5b506102a9610313366004612098565b61092c565b348015610323575f5ffd5b50610277610332366004612066565b610943565b348015610342575f5ffd5b507f52c63247e1f47db19d5ce0460030c497f067ca4cebf71ba98eeadabe20bace0254610277565b348015610375575f5ffd5b506102a96103843660046120c0565b61094f565b348015610394575f5ffd5b506102776103a3366004612066565b610974565b3480156103b3575f5ffd5b506103c76103c23660046120fa565b610994565b005b3480156103d4575f5ffd5b506103dd6109b6565b60405160ff9091168152602001610281565b3480156103fa575f5ffd5b50610277610409366004612124565b6001600160a01b03165f9081525f5160206126c45f395f51905f52602052604090205490565b34801561043a575f5ffd5b506103c76104493660046120fa565b6109df565b348015610459575f5ffd5b505f5160206127045f395f51905f52546040516001600160a01b039091168152602001610281565b34801561048c575f5ffd5b5061027761049b366004612124565b505f1990565b3480156104ac575f5ffd5b506103c76104bb3660046121e6565b610a17565b6103c76104ce366004612262565b610b56565b3480156104de575f5ffd5b506103c76104ed366004612066565b610b75565b3480156104fd575f5ffd5b50610277610b88565b348015610511575f5ffd5b506102776105203660046120fa565b610ba3565b348015610530575f5ffd5b5061027761053f366004612124565b610bd4565b34801561054f575f5ffd5b506103c761055e366004612066565b610bfa565b34801561056e575f5ffd5b5061027761057d366004612124565b610c44565b34801561058d575f5ffd5b506102a961059c3660046120fa565b610c57565b3480156105ac575f5ffd5b506102776105bb3660046120fa565b610c8d565b3480156105cb575f5ffd5b506102cd610ca8565b3480156105df575f5ffd5b506102775f81565b3480156105f2575f5ffd5b506102a9610601366004612098565b610ce6565b348015610611575f5ffd5b506103c7610620366004612066565b610cf3565b348015610630575f5ffd5b506102cd604051806040016040528060058152602001640352e302e360dc1b81525081565b348015610660575f5ffd5b505f5160206126645f395f51905f5254610277565b348015610680575f5ffd5b5061027761068f366004612066565b610d31565b34801561069f575f5ffd5b506102776106ae3660046122c0565b610d3d565b3480156106be575f5ffd5b506102776106cd3660046122c0565b610deb565b3480156106dd575f5ffd5b506102776106ec366004612124565b610e90565b3480156106fc575f5ffd5b5061027761070b366004612066565b610e9a565b34801561071b575f5ffd5b5061027761072a366004612124565b610ea5565b34801561073a575f5ffd5b506103c76107493660046120fa565b610f17565b348015610759575f5ffd5b50610277610768366004612124565b610f33565b348015610778575f5ffd5b506102776107873660046122f9565b610f95565b348015610797575f5ffd5b506102776107a6366004612124565b610fde565b5f805f5160206127045f395f51905f5280546040516370a0823160e01b81523060048201529192506001600160a01b0316906370a0823190602401602060405180830381865afa158015610801573d5f5f3e3d5ffd5b505050506040513d601f19601f820116820180604052508101906108259190612321565b91505090565b5f6001600160e01b03198216637965db0b60e01b148061085b57506301ffc9a760e01b6001600160e01b03198316145b92915050565b7f52c63247e1f47db19d5ce0460030c497f067ca4cebf71ba98eeadabe20bace0380546060915f5160206126845f395f51905f529161089f90612338565b80601f01602080910402602001604051908101604052809291908181526020018280546108cb90612338565b80156109165780601f106108ed57610100808354040283529160200191610916565b820191905f5260205f20905b8154815290600101906020018083116108f957829003601f168201915b505050505091505090565b5f61085b825f610ff2565b5f33610939818585611049565b5060019392505050565b5f61085b826001611056565b5f3361095c8582856110a4565b6109678585856110ee565b60019150505b9392505050565b5f9081525f5160206126e45f395f51905f52602052604090206001015490565b61099d82610974565b6109a68161114b565b6109b08383611158565b50505050565b5f805f5160206127045f395f51905f5290505f81546108259190600160a01b900460ff16612384565b6001600160a01b0381163314610a085760405163334bd91960e11b815260040160405180910390fd5b610a1282826111f9565b505050565b7ff0c57e16840df040f15088dc2f81fe391c3923bec73e23a9662efc9c229c6a008054600160401b810460ff16159067ffffffffffffffff165f81158015610a5c5750825b90505f8267ffffffffffffffff166001148015610a785750303b155b905081158015610a86575080155b15610aa45760405163f92ee8a960e01b815260040160405180910390fd5b845467ffffffffffffffff191660011785558315610ace57845460ff60401b1916600160401b1785555b610ad789611272565b610ae18888611283565b610ae9611295565b610af1611295565b610afb5f33611158565b50610b058661129f565b8315610b4b57845460ff60401b19168555604051600181527fc7f505b2f371ae2175ee4913f4499e1f2633a7b5936321eed1cdaeb6115181d29060200160405180910390a15b505050505050505050565b610b5e6112e5565b610b6782611389565b610b718282611393565b5050565b5f610b7f8161114b565b610b718261129f565b5f610b9161144f565b505f5160206126a45f395f51905f5290565b5f5f19610bb4565b60405180910390fd5b5f610bbe85610e9a565b9050610bcc33858784611498565b949350505050565b6001600160a01b03165f9081525f5160206126845f395f51905f52602052604090205490565b335f610c0582610c44565b905080831115610c2e57818382604051633fa733bb60e21b8152600401610bab9392919061239d565b5f610c3884610943565b90506109b08382611524565b5f61085b610c5183610bd4565b5f610ff2565b5f9182525f5160206126e45f395f51905f52602090815260408084206001600160a01b0393909316845291905290205460ff1690565b5f5f195f610c9a85610d31565b9050610bcc33858388611498565b7f52c63247e1f47db19d5ce0460030c497f067ca4cebf71ba98eeadabe20bace0480546060915f5160206126845f395f51905f529161089f90612338565b5f336109398185856110ee565b335f610cfe82610e90565b905080831115610d2757818382604051632e52afbb60e21b8152600401610bab9392919061239d565b610a128284611524565b5f61085b826001610ff2565b5f610d47826115ad565b5f610d5183610ea5565b905080851115610d7a5782858260405163017459f360e21b8152600401610bab9392919061239d565b5f610d8486610943565b6001600160a01b0385165f9081527f3957d709c956e88416d49496a75429b0ef7b7368365cf6b77684c88715513cfe6020526040812080549293508392909190610dcf9084906123be565b90915550610de290503386868985611624565b95945050505050565b5f610df5826115ad565b5f610dff83610f33565b905080851115610e2857828582604051631c197b7d60e01b8152600401610bab9392919061239d565b5f610e3286610921565b6001600160a01b0385165f9081527f3957d709c956e88416d49496a75429b0ef7b7368365cf6b77684c88715513cfe6020526040812080549293508892909190610e7d9084906123be565b90915550610de29050338686848a611624565b5f61085b82610bd4565b5f61085b825f611056565b6001600160a01b0381165f9081525f5160206126c45f395f51905f526020526040812054421015610ed757505f919050565b6001600160a01b0382165f9081527f3957d709c956e88416d49496a75429b0ef7b7368365cf6b77684c88715513cfe602052604081205461085b91610ff2565b610f2082610974565b610f298161114b565b6109b083836111f9565b6001600160a01b0381165f9081525f5160206126c45f395f51905f526020526040812054421015610f6557505f919050565b5f5160206126645f395f51905f525b6001600160a01b039092165f90815260019290920160205250604090205490565b6001600160a01b039182165f9081527f52c63247e1f47db19d5ce0460030c497f067ca4cebf71ba98eeadabe20bace016020908152604080832093909416825291909152205490565b5f5f5160206126645f395f51905f52610f74565b5f61096d610ffe6107ab565b6110099060016123d1565b6110145f600a6124c7565b7f52c63247e1f47db19d5ce0460030c497f067ca4cebf71ba98eeadabe20bace025461104091906123d1565b859190856116d8565b610a128383836001611725565b5f61096d61106582600a6124c7565b7f52c63247e1f47db19d5ce0460030c497f067ca4cebf71ba98eeadabe20bace025461109191906123d1565b6110996107ab565b6110409060016123d1565b5f6110af8484610f95565b90505f1981146109b057818110156110e057828183604051637dc7a0d960e11b8152600401610bab9392919061239d565b6109b084848484035f611725565b6001600160a01b03831661111757604051634b637e8f60e11b81525f6004820152602401610bab565b6001600160a01b0382166111405760405163ec442f0560e01b81525f6004820152602401610bab565b610a12838383611800565b6111558133611926565b50565b5f5f5160206126e45f395f51905f526111718484610c57565b6111f0575f848152602082815260408083206001600160a01b03871684529091529020805460ff191660011790556111a63390565b6001600160a01b0316836001600160a01b0316857f2f8788117e7eff1d82e926ec794901d17c78024a50270940304540a733656f0d60405160405180910390a4600191505061085b565b5f91505061085b565b5f5f5160206126e45f395f51905f526112128484610c57565b156111f0575f848152602082815260408083206001600160a01b0387168085529252808320805460ff1916905551339287917ff6391f5c32d9c69d2a47ea670b442974b53935d1edc7fd64eb21e047a839171b9190a4600191505061085b565b61127a61195f565b611155816119a8565b61128b61195f565b610b718282611a18565b61129d61195f565b565b805f5160206126645f395f51905f52556040518181527f7b0c0b7914285f737e1247f96f5707d37b9e7f79f29a49b7c47a47733271e6c89060200160405180910390a150565b306001600160a01b037f000000000000000000000000000000000000000000000000000000000000000016148061136b57507f00000000000000000000000000000000000000000000000000000000000000006001600160a01b031661135f5f5160206126a45f395f51905f52546001600160a01b031690565b6001600160a01b031614155b1561129d5760405163703e46dd60e11b815260040160405180910390fd5b5f610b718161114b565b816001600160a01b03166352d1902d6040518163ffffffff1660e01b8152600401602060405180830381865afa9250505080156113ed575060408051601f3d908101601f191682019092526113ea91810190612321565b60015b61141557604051634c9c8ce360e01b81526001600160a01b0383166004820152602401610bab565b5f5160206126a45f395f51905f52811461144557604051632a87526960e21b815260048101829052602401610bab565b610a128383611a68565b306001600160a01b037f0000000000000000000000000000000000000000000000000000000000000000161461129d5760405163703e46dd60e11b815260040160405180910390fd5b5f5160206127045f395f51905f5280546114bd906001600160a01b0316863086611abd565b6114c78483611b24565b836001600160a01b0316856001600160a01b03167fdcbc1c05240f31ff3ad067ef1ee35ce4997762752e3a095284754544f4c709d78585604051611515929190918252602082015260400190565b60405180910390a35050505050565b5f5160206126645f395f51905f5280545f9061154090426123d1565b6001600160a01b0385165f818152600285016020908152604080832085905560018701825291829020879055815187815290810184905292935090917f8de80a6954fb68114bb0cf67fa7c0051bd7504499d582367016dd8242d43dc6e910160405180910390a250505050565b6001600160a01b0381165f9081525f5160206126c45f395f51905f5260205260409020545f5160206126645f395f51905f5290421015610b71576001600160a01b0382165f81815260028301602052604090819020549051630201a3b160e51b815260048101929092526024820152604401610bab565b5f5160206127045f395f51905f526001600160a01b0386811690851614611650576116508487846110a4565b61165a8483611b58565b8054611670906001600160a01b03168685611b8c565b836001600160a01b0316856001600160a01b0316876001600160a01b03167ffbde797d201c681b91056529119e0b02407c7bb96a4a2c75c01fc9667232c8db86866040516116c8929190918252602082015260400190565b60405180910390a4505050505050565b5f5f6116e5868686611bbd565b90506116f083611c7c565b801561170b57505f8480611706576117066124d5565b868809115b15610de25761171b6001826123d1565b9695505050505050565b5f5160206126845f395f51905f526001600160a01b03851661175c5760405163e602df0560e01b81525f6004820152602401610bab565b6001600160a01b03841661178557604051634a1406b160e11b81525f6004820152602401610bab565b6001600160a01b038086165f908152600183016020908152604080832093881683529290522083905581156117f957836001600160a01b0316856001600160a01b03167f8c5be1e5ebec7d5bd14f71427d1e84f3dd0314c0f7b2291e5b200ac8c7c3b9258560405161151591815260200190565b5050505050565b5f5160206126845f395f51905f526001600160a01b03841661183a5781816002015f82825461182f91906123d1565b909155506118979050565b6001600160a01b0384165f90815260208290526040902054828110156118795784818460405163391434e360e21b8152600401610bab9392919061239d565b6001600160a01b0385165f9081526020839052604090209083900390555b6001600160a01b0383166118b55760028101805483900390556118d3565b6001600160a01b0383165f9081526020829052604090208054830190555b826001600160a01b0316846001600160a01b03167fddf252ad1be2c89b69c2b068fc378daa952ba7f163c4a11628f55a4df523b3ef8460405161191891815260200190565b60405180910390a350505050565b6119308282610c57565b610b715760405163e2517d3f60e01b81526001600160a01b038216600482015260248101839052604401610bab565b7ff0c57e16840df040f15088dc2f81fe391c3923bec73e23a9662efc9c229c6a0054600160401b900460ff1661129d57604051631afcd79f60e31b815260040160405180910390fd5b6119b061195f565b5f5160206127045f395f51905f525f806119c984611ca8565b91509150816119d95760126119db565b805b83546001600160a81b031916600160a01b60ff92909216919091026001600160a01b031916176001600160a01b0394909416939093179091555050565b611a2061195f565b5f5160206126845f395f51905f527f52c63247e1f47db19d5ce0460030c497f067ca4cebf71ba98eeadabe20bace03611a59848261252d565b50600481016109b0838261252d565b611a7182611d7e565b6040516001600160a01b038316907fbc7cd75a20ee27fd9adebab32041f755214dbc6bffa90cc0225b39da2e5c2d3b905f90a2805115611ab557610a128282611de1565b610b71611e4a565b6040516001600160a01b0384811660248301528381166044830152606482018390526109b09186918216906323b872dd906084015b604051602081830303815290604052915060e01b6020820180516001600160e01b038381831617835250505050611e69565b6001600160a01b038216611b4d5760405163ec442f0560e01b81525f6004820152602401610bab565b610b715f8383611800565b6001600160a01b038216611b8157604051634b637e8f60e11b81525f6004820152602401610bab565b610b71825f83611800565b6040516001600160a01b03838116602483015260448201839052610a1291859182169063a9059cbb90606401611af2565b5f838302815f1985870982811083820303915050805f03611bf157838281611be757611be76124d5565b049250505061096d565b808411611c115760405163227bc15360e01b815260040160405180910390fd5b5f848688095f868103871696879004966002600389028118808a02820302808a02820302808a02820302808a02820302808a02820302808a02909103029181900381900460010186841190950394909402919094039290920491909117919091029150509392505050565b5f6002826003811115611c9157611c916125e8565b611c9b91906125fc565b60ff166001149050919050565b60408051600481526024810182526020810180516001600160e01b031663313ce56760e01b17905290515f918291829182916001600160a01b03871691611cee91612629565b5f60405180830381855afa9150503d805f8114611d26576040519150601f19603f3d011682016040523d82523d5f602084013e611d2b565b606091505b5091509150818015611d3f57506020815110155b15611d72575f81806020019051810190611d599190612321565b905060ff8111611d70576001969095509350505050565b505b505f9485945092505050565b806001600160a01b03163b5f03611db357604051634c9c8ce360e01b81526001600160a01b0382166004820152602401610bab565b5f5160206126a45f395f51905f5280546001600160a01b0319166001600160a01b0392909216919091179055565b60605f5f846001600160a01b031684604051611dfd9190612629565b5f60405180830381855af49150503d805f8114611e35576040519150601f19603f3d011682016040523d82523d5f602084013e611e3a565b606091505b5091509150610de2858383611eca565b341561129d5760405163b398979f60e01b815260040160405180910390fd5b5f611e7d6001600160a01b03841683611f26565b905080515f14158015611ea1575080806020019051810190611e9f9190612644565b155b15610a1257604051635274afe760e01b81526001600160a01b0384166004820152602401610bab565b606082611edf57611eda82611f33565b61096d565b8151158015611ef657506001600160a01b0384163b155b15611f1f57604051639996b31560e01b81526001600160a01b0385166004820152602401610bab565b508061096d565b606061096d83835f611f5c565b805115611f435780518082602001fd5b604051630a12f52160e11b815260040160405180910390fd5b606081471015611f815760405163cd78605960e01b8152306004820152602401610bab565b5f5f856001600160a01b03168486604051611f9c9190612629565b5f6040518083038185875af1925050503d805f8114611fd6576040519150601f19603f3d011682016040523d82523d5f602084013e611fdb565b606091505b509150915061171b868383611eca565b5f60208284031215611ffb575f5ffd5b81356001600160e01b03198116811461096d575f5ffd5b5f5b8381101561202c578181015183820152602001612014565b50505f910152565b602081525f8251806020840152612052816040850160208701612012565b601f01601f19169190910160400192915050565b5f60208284031215612076575f5ffd5b5035919050565b80356001600160a01b0381168114612093575f5ffd5b919050565b5f5f604083850312156120a9575f5ffd5b6120b28361207d565b946020939093013593505050565b5f5f5f606084860312156120d2575f5ffd5b6120db8461207d565b92506120e96020850161207d565b929592945050506040919091013590565b5f5f6040838503121561210b575f5ffd5b8235915061211b6020840161207d565b90509250929050565b5f60208284031215612134575f5ffd5b61096d8261207d565b634e487b7160e01b5f52604160045260245ffd5b5f5f67ffffffffffffffff84111561216b5761216b61213d565b50604051601f19601f85018116603f0116810181811067ffffffffffffffff8211171561219a5761219a61213d565b6040528381529050808284018510156121b1575f5ffd5b838360208301375f60208583010152509392505050565b5f82601f8301126121d7575f5ffd5b61096d83833560208501612151565b5f5f5f5f608085870312156121f9575f5ffd5b6122028561207d565b9350602085013567ffffffffffffffff81111561221d575f5ffd5b612229878288016121c8565b935050604085013567ffffffffffffffff811115612245575f5ffd5b612251878288016121c8565b949793965093946060013593505050565b5f5f60408385031215612273575f5ffd5b61227c8361207d565b9150602083013567ffffffffffffffff811115612297575f5ffd5b8301601f810185136122a7575f5ffd5b6122b685823560208401612151565b9150509250929050565b5f5f5f606084860312156122d2575f5ffd5b833592506122e26020850161207d565b91506122f06040850161207d565b90509250925092565b5f5f6040838503121561230a575f5ffd5b6123138361207d565b915061211b6020840161207d565b5f60208284031215612331575f5ffd5b5051919050565b600181811c9082168061234c57607f821691505b60208210810361236a57634e487b7160e01b5f52602260045260245ffd5b50919050565b634e487b7160e01b5f52601160045260245ffd5b60ff818116838216019081111561085b5761085b612370565b6001600160a01b039390931683526020830191909152604082015260600190565b8181038181111561085b5761085b612370565b8082018082111561085b5761085b612370565b6001815b600184111561241f5780850481111561240357612403612370565b600184161561241157908102905b60019390931c9280026123e8565b935093915050565b5f826124355750600161085b565b8161244157505f61085b565b816001811461245757600281146124615761247d565b600191505061085b565b60ff84111561247257612472612370565b50506001821b61085b565b5060208310610133831016604e8410600b84101617156124a0575081810a61085b565b6124ac5f1984846123e4565b805f19048211156124bf576124bf612370565b029392505050565b5f61096d60ff841683612427565b634e487b7160e01b5f52601260045260245ffd5b601f821115610a1257805f5260205f20601f840160051c8101602085101561250e5750805b601f840160051c820191505b818110156117f9575f815560010161251a565b815167ffffffffffffffff8111156125475761254761213d565b61255b816125558454612338565b846124e9565b6020601f82116001811461258d575f83156125765750848201515b5f19600385901b1c1916600184901b1784556117f9565b5f84815260208120601f198516915b828110156125bc578785015182556020948501946001909201910161259c565b50848210156125d957868401515f19600387901b60f8161c191681555b50505050600190811b01905550565b634e487b7160e01b5f52602160045260245ffd5b5f60ff83168061261a57634e487b7160e01b5f52601260045260245ffd5b8060ff84160691505092915050565b5f825161263a818460208701612012565b9190910192915050565b5f60208284031215612654575f5ffd5b8151801515811461096d575f5ffdfe3957d709c956e88416d49496a75429b0ef7b7368365cf6b77684c88715513cfd52c63247e1f47db19d5ce0460030c497f067ca4cebf71ba98eeadabe20bace00360894a13ba1a3210667c828492db98dca3e2076cc3735a920a3ca505d382bbc3957d709c956e88416d49496a75429b0ef7b7368365cf6b77684c88715513cff02dd7bc7dec4dceedda775e58dd541e08a116c6c53815c0bd028192f7b6268000773e532dfede91f04b12a73d3d2acd361424f41f76b4fb79f090161e36b4e00a2646970667358221220a236876b5109cebbaa8daef595e47f36893b8de3d2409809d80e87f94c7c508164736f6c634300081c0033",
    "linkReferences": {}
  },
  "methodIdentifiers": {
    "DEFAULT_ADMIN_ROLE()": "a217fddf",
    "UPGRADE_INTERFACE_VERSION()": "ad3cb1cc",
    "allowance(address,address)": "dd62ed3e",
    "approve(address,uint256)": "095ea7b3",
    "asset()": "38d52e0f",
    "balanceOf(address)": "70a08231",
    "convertToAssets(uint256)": "07a2d13a",
    "convertToShares(uint256)": "c6e6f592",
    "cooldownTime()": "b319c6b7",
    "coolingDown(address)": "e4eedb01",
    "decimals()": "313ce567",
    "deposit(uint256,address)": "6e553f65",
    "getRoleAdmin(bytes32)": "248a9ca3",
    "grantRole(bytes32,address)": "2f2ff15d",
    "hasRole(bytes32,address)": "91d14854",
    "initialize(address,string,string,uint256)": "4d12d4b6",
    "maxDeposit(address)": "402d267d",
    "maxMint(address)": "c63d75b6",
    "maxRedeem(address)": "d905777e",
    "maxRequestRedeem(address)": "bf568c0a",
    "maxRequestWithdraw(address)": "7b05d361",
    "maxWithdraw(address)": "ce96cb77",
    "mint(uint256,address)": "94bf804d",
    "name()": "06fdde03",
    "previewDeposit(uint256)": "ef8b30f7",
    "previewMint(uint256)": "b3d7f6b9",
    "previewRedeem(uint256)": "4cdad506",
    "previewWithdraw(uint256)": "0a28a477",
    "proxiableUUID()": "52d1902d",
    "redeem(uint256,address,address)": "ba087652",
    "releaseTime(address)": "34265c48",
    "renounceRole(bytes32,address)": "36568abe",
    "requestRedeem(uint256)": "aa2f892d",
    "requestWithdraw(uint256)": "745400c9",
    "revokeRole(bytes32,address)": "d547741f",
    "setCooldown(uint256)": "4fc3f41a",
    "supportsInterface(bytes4)": "01ffc9a7",
    "symbol()": "95d89b41",
    "totalAssets()": "01e1d114",
    "totalSupply()": "18160ddd",
    "transfer(address,uint256)": "a9059cbb",
    "transferFrom(address,address,uint256)": "23b872dd",
    "upgradeToAndCall(address,bytes)": "4f1ef286",
    "withdraw(uint256,address,address)": "b460af94"
  },
  "id": 45
}